:020000040800F2
:100000000050002025190008491800084F18000862
:10001000551800085B18000861180008000000006F
:100020000000000000000000000000006718000849
:1000300073180008000000007F1800088B180008E3
:100040006D1900086D1900086D1900086D19000878
:100050006D1900086D1900086D1900086D19000868
:100060006D1900086D1900086D1900086D19000858
:100070006D1900086D1900086D1900086D19000848
:100080006D1900086D1900086D1900086D19000838
:100090006D1900086D1900086D1900086D19000828
:1000A0006D1900086D1900086D1900086D19000818
:1000B000991800086D1900086D1900086D190008DD
:1000C0006D1900086D1900086D1900086D190008F8
:1000D0006D1900086D1900086D1900086D190008E8
:1000E0006D1900086D1900086D1900080000000066
:1000F0000000000000000000000000000000000000
:0C01000000000000000000005FF808F1A3
:10010C0010B5054C237833B9044B13B10448AFF345
:10011C0000800123237010BDFC00002000000000B3
:10012C003843000808B5034B1BB103490348AFF330
:10013C00008008BD000000000001002038430008CA
:10014C0080B483B000AF7860094A7B6852F82330E2
:10015C00012B06D1064A7B68002142F823100123AB
:10016C0000E0002318460C37BD4680BC704700BF2A
:10017C001801002080B483B000AF7860044A7B681B
:10018C00012142F8231000BF0C37BD4680BC7047DC
:10019C001801002080B582B000AF00237B606DE0B9
:1001AC003A4A7B6852F8232039497B6841F823206E
:1001BC00384A7B6852F8232034497B6841F8232065
:1001CC00354A7B6852F8232034497B6831F8133068
:1001DC001946104601F0BAFE034619462D4A7B68B3
:1001EC0042F82310294A7B6852F8232029497B685E
:1001FC0051F823309A423ED1244A7B6852F823208E
:10020C0023497B6851F823309A4234D1204A7B68C9
:10021C0052F8232022497B6851F823309A4216D099
:10022C001B4A7B6852F823201D497B6841F8232028
:10023C001B4A7B6852F82330002B1CD1194A7B686F
:10024C00C82142F823107868FFF794FF13E0154A91
:10025C007B6852F823305A1E12497B6841F82320E0
:10026C00104A7B6852F82330002B04D10C4A7B686F
:10027C00012142F823107B6801337B607B68032BE0
:10028C008EDD00BF00BF0837BD4680BD28000020B2
:10029C00380000201800002008000020000000207A
:1002AC00480000205800002080B500AF0020FFF768
:1002BC0047FF0346012B13D100F022FD094B052209
:1002CC001A7000F03BFD00F095FD0749074803F05C
:1002DC00A9FC03469AB2C8230449054803F02AFA3C
:1002EC0000BF80BD28010020504300087802002088
:1002FC002C02002080B500AF0020FFF721FF034641
:10030C00012B16D100F0FCFC0B4B07221A7000F0ED
:10031C0015FD00F04FFD094B1B681A4608490948AA
:10032C0003F080FC03469AB2C8230649064803F042
:10033C0001FA00BF80BD00BF28010020680000202A
:10034C0078430008780200202C02002080B500AF12
:10035C00A84B1B78042B00F2FD8101A252F823F06C
:10036C0081030008C1030008730400084D05000850
:10037C004106000800F0C4FC9F4B1A689F4B1B6899
:10038C0092FBF3F39E4A13609E4B1A689B4B1B68BF
:10039C0092FBF3F39C4A1360964B01221A70994B13
:1003AC001B681946002001F00FF96421012001F0AF
:1003BC000BF9D0E100F0C2FC00F01CFD934B5B6824
:1003CC00002B37D06421012001F0FEF800F080FCF6
:1003DC008B4B1B68013B8A4A1360894B1B681A467E
:1003EC008B498C4803F01EFC03469AB2C8238949FA
:1003FC00894803F09FF9844B1B68013B824A1360C8
:10040C00814B1B681A468549824803F00BFC034656
:10041C009AB2C8237F49804803F08CF97A4B1B6849
:10042C00002B07DC7E4B1A68744B1B6892FBF3F3B2
:10043C00754A1360754B1B68002B08D06D4B02225C
:10044C001A70774B1B681946002001F0BDF8032089
:10045C00FFF776FE0346002B02D0724B01221A6086
:10046C00FFF722FF77E100F069FC00F0B3FC674B6B
:10047C005B68002B4BD06421012001F0A5F800F043
:10048C0027FC5F4B1B68013B5D4A13605C4B1B6890
:10049C00002B07DC5B4B1A68584B1B6892FBF3F381
:1004AC00574A1360564B1B681A465949594803F072
:1004BC00B9FB03469AB2C8235649574803F03AF998
:1004CC00514B1B68013B504A13604F4B1B681A463B
:1004DC005549504803F0A6FB03469AB2C8234D4930
:1004EC004D4803F027F9484B1B68002B0FDC454B9C
:1004FC001A68424B1B6892FBF3F3414A13603E4B64
:10050C001A683E4B1B6892FBF3F33F4A13603F4B58
:10051C001B68002B08D0374B03221A70394B1B6811
:10052C001946002001F050F80320FFF709FE03469E
:10053C00002B02D03B4B01221A60FFF7B5FE0AE1FB
:10054C0000F024FC00F036FC304B5B68002B37D0FD
:10055C006421012001F038F800F0BAFB284B1B682D
:10056C00013B274A1360264B1B681A462F49294822
:10057C0003F058FB03469AB2C8232649264803F0D9
:10058C00D9F8214B1B68013B1F4A13601E4B1B689B
:10059C001A4627491F4803F045FB03469AB2C82365
:1005AC001C491D4803F0C6F8154B1B68002B07DCD3
:1005BC001B4B1A68114B1B6892FBF3F3104A136028
:1005CC00124B1B68002B08D00A4B04221A70144BD8
:1005DC001B681946002000F0F7FF0320FFF7B0FD61
:1005EC000346002B02D00F4B01221A60FFF75CFE72
:1005FC00B1E000BF28010020680000200846000878
:10060C002C0100206C000020300100204001002053
:10061C0090430008780200202C020020A843000818
:10062C007000002038010020C4430008E04300089B
:10063C00FC43000800F096FB00F0BCFB474B5B68EA
:10064C00002B4BD06421012000F0BEFF00F040FBDA
:10065C00434B1B68013B424A1360414B1B681A46D3
:10066C004049414803F0DEFA03469AB2C8233E499A
:10067C003E4803F05FF83A4B1B68002B07DC3C4B01
:10068C001A683C4B1B6892FBF3F3354A13603A4BE8
:10069C001B68013B384A1360374B1B681A463749B5
:1006AC00314803F0BFFA03469AB2C8232E492F48AB
:1006BC0003F040F8304B1B68002B0FDC2C4B1A68F6
:1006CC002C4B1B6892FBF3F3254A13602C4B1A68D6
:1006DC00284B1B6892FBF3F3274A13601F4B1B68D4
:1006EC00002B0BD0274B1E221A60274B01221A70AD
:1006FC00234B1B681946002000F066FF0320FFF710
:10070C001FFD0346002B02D0204B01221A601F4B09
:10071C001B68002B1BD0184B1B68032B17DC0F4BD3
:10072C00DB68012B13D100F0DBF8164B1B68194664
:10073C00032000F049FF134B1B68053B114A136063
:10074C00104B1B68002B02DC0E4B01221A60FFF7CA
:10075C00ABFD00E000BF00BF80BD00BF400100202A
:10076C002C01002014440008780200202C020020E8
:10077C00680000200846000830010020FC430008F7
:10078C006C00002088000020280100203801002087
:10079C0080B500AF1F4B1B78052B02D0062B1BD04E
:1007AC0035E00120FFF7CCFC0346002B11D0194B90
:1007BC0006221A7000F0FEFA00F0E8FA1649174803
:1007CC0003F030FA03469AB2C8231449144802F0D5
:1007DC00B1FFFFF78FFD1AE00120FFF7B1FC0346D4
:1007EC00002B11D00B4B05221A7000F0A7FA00F069
:1007FC0001FB0C49094803F015FA03469AB2C823C9
:10080C000649074802F096FFFFF774FD00BF00BFD2
:10081C0080BD00BF28010020304400087802002071
:10082C002C0200205043000880B500AF0D4B1B7804
:10083C00012B03D00B4B1B78022B06D100F0EAFAEC
:10084C00094B1B6800225A6309E0064B1B78032BEB
:10085C0003D0044B1B78042B01D100F0EFFA00BF3E
:10086C0080BD00BF280100209C01002080B500AF96
:10087C00184B1B680C2B06D00C2B24DC0A2B0CD031
:10088C000B2B13D01FE000F0EDFA134B1B68002B61
:10089C001BD0104B0A221A6017E04FF47A71022019
:1008AC0000F092FE0B4B0B221A6011E0FFF7BCFF1D
:1008BC000A4B9B68002B0AD0064B0C221A60064B85
:1008CC0000221A6003E000BF02E000BF00E000BF9E
:1008DC0000BF80BD800000203801002040010020B6
:1008EC0080B400AF0D4B1B68012B04D10C4B1B6863
:1008FC0064225A6307E0094B1B68002B03D1084B99
:10090C001B6800225A63054B1B68C3F10103034AA1
:10091C00136000BFBD4680BC704700BF8400002040
:10092C009C01002080B500AF0020FFF709FC0346B6
:10093C00012B0FD100F0E4F9074B1A68074B1B6829
:10094C00D31A074A1360074B01221A7000F0F6F90C
:10095C0000F050FA00BF80BD680000206C00002041
:10096C00700000202801002080B500AF874B1B7859
:10097C00092B00F0F680092B00F38F81072B02D096
:10098C00082B77D089E1824B1B69012B14D11921DB
:10099C00042000F019FE7F4B1B68002B07D100F0E0
:1009AC00CDF900F007FA7B4B01221A6004E000F04D
:1009BC00A7F9784B00221A600120FFF7C1FB034610
:1009CC00002B14D0714B08221A701921042000F04E
:1009DC00FBFD714B1B681A467049714803F022F9F4
:1009EC0003469AB2C8236E496E4802F0A3FE022059
:1009FC00FFF7A6FB0346012B1DD16B4B1B68013384
:100A0C00694A1360684B1B681A466849644803F0CE
:100A1C0009F903469AB2C8236149624802F08AFE7A
:100A2C00614B1B68092B02DD5F4B05221A605E4B84
:100A3C001B685F4A13600320FFF782FB0346002B01
:100A4C0015D0594B1B685B4A126802FB03F35A4AD8
:100A5C001360554B1B681A465849514803F0E2F88D
:100A6C0003469AB2C8234E494E4802F063FEFFF784
:100A7C0059FF12E1464B1B69012B14D1192104209B
:100A8C0000F0A2FD434B1B68002B07D100F06AF964
:100A9C0000F0A0F93F4B01221A6004E000F030F99D
:100AAC003C4B00221A600120FFF74AFB0346002B47
:100ABC0014D0364B09221A701921042000F084FD41
:100ACC003F4B1B681A463F49354803F0ABF80346C9
:100ADC009AB2C8233249334802F02CFE0220FFF7A9
:100AEC002FFB0346012B1DD1374B1B680133364AB4
:100AFC001360354B1B681A463449294803F092F8A9
:100B0C0003469AB2C8232649264802F013FE2E4B00
:100B1C001B68092B02DD2C4B02221A602A4B1B6826
:100B2C00234A13600320FFF70BFB0346002B15D061
:100B3C00254B1B681F4A126802FB03F3164A13600D
:100B4C00214B1B681A462249154803F06BF80346E3
:100B5C009AB2C8231249134802F0ECFDFFF7E2FEEB
:100B6C009BE00B4B1B69012B39D11921042000F0A0
:100B7C002BFD084B1B68002B2CD100F007F900F063
:100B8C0039F9044B01221A6029E000BF280100202A
:100B9C00400100203401002070000020584400085F
:100BAC00780200202C0200207400002074440008FD
:100BBC002C0100200846000868000020984400081A
:100BCC006C000020B84400087C000020D4440008CD
:100BDC00FC44000800F094F8314B00221A6001200C
:100BEC00FFF7AEFA0346002B14D02E4B07221A70D7
:100BFC001921042000F0E8FC2B4B1B681A462B49EA
:100C0C002B4803F00FF803469AB2C8232849294809
:100C1C0002F090FD0220FFF793FA0346012B1DD141
:100C2C00254B1B680133244A1360234B1B681A465F
:100C3C0022491F4802F0F6FF03469AB2C8231C490A
:100C4C001C4802F077FD1C4B1B68092B02DD1A4B6C
:100C5C0003221A60184B1B68194A13600320FFF714
:100C6C006FFA0346002B15D0134B1B68154A1268FC
:100C7C0002FB03F3144A13600F4B1B681A4613490B
:100C8C000B4802F0CFFF03469AB2C8230849094823
:100C9C0002F050FDFFF746FE00BF00BF80BD00BF55
:100CAC0034010020280100206800002020450008A5
:100CBC00780200202C020020780000203845000823
:100CCC002C010020084600086C000020604500083C
:100CDC0080B500AF4FF0FF3304220649064802F0FE
:100CEC0029FD4FF0FF3303220449034802F022FD93
:100CFC0000BF80BD844500082C0200208C450008F4
:100D0C0080B500AF00224FF480610A4801F035F93C
:100D1C0000220821084801F030F900222021064861
:100D2C0001F02BF900221021034801F026F900BF35
:100D3C0080BD00BF00080140000C014080B500AF31
:100D4C0001224FF48061054801F017F900220821B7
:100D5C00034801F012F900BF80BD00BF000801403C
:100D6C00000C014080B500AF01224FF480610548B2
:100D7C0001F003F901220821034801F0FEF800BF3D
:100D8C0080BD00BF00080140000C014080B500AFE1
:100D9C0000224FF48061054801F0EFF80122082190
:100DAC00034801F0EAF800BF80BD00BF0008014015
:100DBC00000C014080B500AF01222021044801F055
:100DCC00DCF800221021024801F0D7F800BF80BDEA
:100DDC00000C014080B500AF01222021044801F035
:100DEC00CCF801221021024801F0C7F800BF80BDE9
:100DFC00000C014080B500AF00222021044801F016
:100E0C00BCF801221021024801F0B7F800BF80BDE8
:100E1C00000C014080B500AF01224FF48061054801
:100E2C0001F0ABF800224FF48071034801F0A5F8F3
:100E3C0000BF80BD000C01400008014080B500AF30
:100E4C0000224FF48061054801F097F801224FF41D
:100E5C008071034801F091F800BF80BD000C014087
:100E6C000008014080B500AF00224FF480610548B6
:100E7C0001F083F800224FF48071034801F07DF8F3
:100E8C0000BF80BD000C01400008014080B500AFE0
:100E9C0000F068FD00F03AF800F066F900F078F820
:100EAC0000F0C2F800F036F9124801F0DDFC002128
:100EBC00114801F083FD1721002000F085FB0A2169
:100ECC00032000F081FB322214210C4800F02AFA96
:100EDC00322214210A4800F025FA32221421094842
:100EEC0000F020FA32221421074800F01BFA00F01F
:100EFC00E9FAFCE7E40100209C01002059030008FA
:100F0C00790800089D0700087509000880B590B0A5
:100F1C0000AF07F1180328220021184602F0C4FD87
:100F2C003B1D00221A605A609A60DA601A61022333
:100F3C00BB610123BB621023FB6202237B63002392
:100F4C00BB634FF46013FB6307F11803184601F001
:100F5C002DF80346002B01D000F082F90F237B60A3
:100F6C000223BB600023FB604FF480633B610023D2
:100F7C007B613B1D0221184601F098FA0346002BB9
:100F8C0001D000F06DF900BF4037BD4680BD0000B8
:100F9C0080B586B000AF07F1080300221A605A60D2
:100FAC009A60DA603B4600221A605A601D4B4FF083
:100FBC0080421A601B4B41F63F725A60194B00225B
:100FCC009A60184B4F22DA60164B00221A61154BAF
:100FDC0000229A61134801F0F7FB0346002B01D065
:100FEC0000F03EF94FF48053BB6007F1080319463B
:100FFC000C4801F04FFF0346002B01D000F030F9F4
:10100C0000233B6000237B603B461946054802F0F9
:10101C00D1FA0346002B01D000F022F900BF18379B
:10102C00BD4680BDE401002080B58EB000AF07F155
:10103C00280300221A605A609A60DA6007F12003D4
:10104C0000221A605A603B1D00221A605A609A6096
:10105C00DA601A615A619A612C4B2D4A1A602B4B3B
:10106C004F225A60294B00229A60284B4F22DA609B
:10107C00264B00221A61254B00229A61234801F06D
:10108C00A3FB0346002B01D000F0EAF84FF4805389
:10109C00BB6207F1280319461C4801F0FBFE03460E
:1010AC00002B01D000F0DCF8184801F02FFC0346AF
:1010BC00002B01D000F0D4F800233B6200237B62AC
:1010CC0007F120031946114802F074FA0346002B6D
:1010DC0001D000F0C5F860237B600023BB600023C7
:1010EC00FB6000237B613B1D00221946074801F081
:1010FC000FFE0346002B01D000F0B2F8034800F0BD
:10110C0021FB00BF3837BD4680BD00BF9C010020CD
:10111C000004004080B500AF114B124A1A60104B0E
:10112C004FF4E1325A600E4B00229A600C4B0022B5
:10113C00DA600B4B00221A61094B0C225A61084BE6
:10114C0000229A61064B0022DA61054802F0A2FAED
:10115C000346002B01D000F083F800BF80BD00BF18
:10116C002C0200200044004080B586B000AF07F18F
:10117C00080300221A605A609A60DA602E4B9B6951
:10118C002D4A43F0040393612B4B9B6903F004033A
:10119C007B607B68284B9B69274A43F0080393616B
:1011AC00254B9B6903F008033B603B6800224FF41E
:1011BC008761224800F0E1FE00224FF4A061204834
:1011CC0000F0DBFE1323BB600023FB6001233B61BB
:1011DC0007F1080319461A4800F034FD0123BB60DF
:1011EC000023FB6001233B6107F1080319461348F8
:1011FC0000F028FD4FF48763BB600123FB600023E4
:10120C003B6102237B6107F1080319460B4800F090
:10121C0019FD4FF4A063BB600123FB6000233B610D
:10122C0002237B6107F108031946054800F00AFD0B
:10123C0000BF1837BD4680BD00100240000C0140B5
:10124C000008014080B582B000AF786000F00EF964
:10125C0000F0FAF9FEF79EFF00BF0837BD4680BDCF
:10126C0080B400AF72B600BFFEE7000080B485B05A
:10127C0000AF78602A4B1B687A689A424BD0284B97
:10128C001B68FB600023FB7214E0254B1B68FA689B
:10129C009A4202D1FB7A0133FB72FB7A022B10D0FB
:1012AC007B68DA68FB68DB68D21A7B68DA60FB68FB
:1012BC005B68FB60FB68DA687B68DB689A42E4D9A0
:1012CC0000E000BF7B68DB68002B02D17B68012249
:1012DC001A767B68FA685A60FB681A687B681A6031
:1012EC00FB681B687A685A60FB687A681A600C4B5A
:1012FC001B68FA689A420FD0FB68DA687B68DB6877
:10130C00D21AFB68DA60FB68DB68002B04D1FB683F
:10131C0001221A7600E000BF1437BD4680BC70472E
:10132C003C01002080B586B000AFF860B9607A60EF
:10133C00FB68002B0DD14349434802F073FC034674
:10134C009AB2C8234049414802F0F4F94FF0FF33F8
:10135C0074E000237B6102E07B6901337B617B6974
:10136C00272B05D83A4A7B6913441B78002BF3D101
:10137C007B69282B0DD13749334802F053FC0346C7
:10138C009AB2C8233049314802F0D4F94FF0FF33F8
:10139C0054E02F4A7B69134401221A702E4B012210
:1013AC001A701C2002F070FB03463B61BB682B4A91
:1013BC00A2FB0323DA083B69DA607B68274AA2FBAD
:1013CC000323DA083B691A613B69FA689A603B6946
:1013DC007A695A613B6900221A76214B1B68002BF3
:1013EC0011D03B695B691A461E49174802F01AFC7A
:1013FC0003469AB2C8231449144802F09BF9386981
:10140C00FFF734FF16E03B695B691A4616490E4834
:10141C0002F008FC03469AB2C8230B490B4802F0B1
:10142C0089F93B693A691A603B693A695A600C4A16
:10143C003B691360084B00221A707B6918461837F9
:10144C00BD4680BD90450008780200202C0200208B
:10145C00DC020020B845000874020020CDCCCCCCB6
:10146C003C010020D4450008EC45000880B400AFD6
:10147C00124B1B68002B1DD0104B1B681B7E002BC6
:10148C0018D10F4B1B78002B14D10C4B1B68DB684D
:10149C00002B06D0094B1B68DA68084B1B68013A15
:1014AC00DA60064B1B68DB68002B03D1034B1B680F
:1014BC0001221A7600BFBD4680BC70473C0100205B
:1014CC007402002080B582B000AF254B01221A7047
:1014DC0036E0244B1B689B689847224B1B681B69A2
:1014EC00002B0DD11F4B1B683B601E4B1B685B68B0
:1014FC001C4A13603B685B69184600F035F81FE026
:10150C00184B1B687B60174B1A68164B1B685B6883
:10151C0012681A60134B1A68124B1B681B685268CE
:10152C005A60104B1B685B680E4A13607B68002284
:10153C001A767B681A697B68DA607868FFF796FE22
:10154C00084B1B68002B04D0064B1B681B7E002B22
:10155C00BFD1034B00221A7000BF0837BD4680BDB7
:10156C00740200203C01002080B584B000AF78608C
:10157C00134A7B6813441B78002B1DD0104A7B68E0
:10158C00134400221A700F4B1B68FB6002E0FB68CF
:10159C005B68FB60FB685B697A689A42F7D1FB6811
:1015AC005B68FA6812681A60FB681B68FA68526814
:1015BC005A60F86802F070FA00BF1037BD4680BD63
:1015CC00DC0200203C01002080B483B000AF7860C6
:1015DC003960074A7B68002142F8231005497B6873
:1015EC003A6841F8232000BF0C37BD4680BC7047D9
:1015FC00400100206801002080B483B000AF786007
:10160C000F4A7B6852F82330002B13DD0C4A7B68A1
:10161C0052F823305A1E0A497B6841F82320084AA5
:10162C007B6852F82330002B04DC064A7B680121CE
:10163C0042F8231000BF0C37BD4680BC704700BF7A
:10164C00680100204001002080B500AF0020FFF7AA
:10165C00D3FF0120FFF7D0FF0220FFF7CDFF0320BF
:10166C00FFF7CAFF0420FFF7C7FF00BF80BD0000D3
:10167C0080B485B000AF154B9B69144A43F001034D
:10168C009361124B9B6903F00103BB60BB680F4B6A
:10169C00DB690E4A43F08053D3610C4BDB6903F0DA
:1016AC0080537B607B680A4B5B68FB60FB6823F0B4
:1016BC00E063FB60FB6843F00073FB60044AFB686B
:1016CC00536000BF1437BD4680BC70470010024009
:1016DC000000014080B584B000AF78607B681B6867
:1016EC00B3F1804F14D1154BDB69144A43F001035D
:1016FC00D361124BDB6903F00103FB60FB68002232
:10170C0000211C2000F067FA1C2000F080FA10E089
:10171C007B681B680A4A93420BD1084BDB69074A6A
:10172C0043F00203D361054BDB6903F00203BB609A
:10173C00BB6800BF1037BD4680BD00BF0010024023
:10174C000004004080B588B000AF786007F110034A
:10175C0000221A605A609A60DA607B681B680F4A34
:10176C00934217D10E4B9B690D4A43F004039361CE
:10177C000B4B9B6903F00403FB60FB6840233B614C
:10178C0002237B610223FB6107F110031946054814
:10179C0000F058FA00BF2037BD4680BD0004004061
:1017AC00001002400008014080B588B000AF78609E
:1017BC0007F1100300221A605A609A60DA607B68A5
:1017CC001B681B4A93422FD11A4BDB69194A43F40D
:1017DC000033D361174BDB6903F40033FB60FB6808
:1017EC00144B9B69134A43F004039361114B9B699F
:1017FC0003F00403BB60BB6804233B6102237B61E1
:10180C000323FB6107F1100319460B4800F01AFA89
:10181C0008233B6100237B610023BB6107F11003AC
:10182C001946054800F00EFA00BF2037BD4680BDB2
:10183C0000440040001002400008014080B400AF9A
:10184C00FEE780B400AFFEE780B400AFFEE780B4E3
:10185C0000AFFEE780B400AFFEE780B400AF00BF7E
:10186C00BD4680BC704780B400AF00BFBD4680BC95
:10187C00704780B400AF00BFBD4680BC704780B5D8
:10188C0000AF00F0B5F800BF80BD000080B500AF20
:10189C00024801F035F900BF80BD00BFE401002013
:1018AC0080B586B000AF7860144A154BD31A7B61B3
:1018BC007B693B61134B1B68002B02D1114B124A05
:1018CC001A60104B1A687B6813443A699A4207D223
:1018DC0002F0B0F803460C221A604FF0FF3309E017
:1018EC00084B1B68FB60074B1A687B681344054A5E
:1018FC001360FB6818461837BD4680BD00500020A9
:10190C0000040000900100201803002080B400AFF8
:10191C0000BFBD4680BC7047FFF7F8FF0B480C4971
:10192C000C4A002302E0D458C4500433C4188C422F
:10193C00F9D3094A094C002301E013600432A24296
:10194C00FBD302F07DF8FFF7A1FA704700000020EE
:10195C00FC00002074460008FC0000201803002046
:10196C00FEE7000080B500AF084B1B68074A43F048
:10197C0010031360032000F023F90F2000F008F887
:10198C00FFF776FE0023184680BD00BF0020024002
:10199C0080B582B000AF7860124B1A68124B1B787E
:1019AC0019464FF47A73B3FBF1F3B2FBF3F3184619
:1019BC0000F03BF90346002B01D001230EE07B68BD
:1019CC000F2B0AD8002279684FF0FF3000F003F992
:1019DC00064A7B681360002300E001231846083791
:1019EC00BD4680BD8C00002094000020900000209B
:1019FC0080B400AF054B1B781A46054B1B6813448B
:101A0C00034A136000BFBD4680BC704794000020A1
:101A1C000403002080B400AF024B1B681846BD467F
:101A2C0080BC70470403002080B485B000AF7860A0
:101A3C007B6803F00703FB600C4BDB68BB60BA6888
:101A4C004FF6FF031340BB60FB681A02BB681343DD
:101A5C0043F0BF6343F40033BB60044ABB68D360FC
:101A6C0000BF1437BD4680BC704700BF00ED00E0DE
:101A7C0080B400AF044BDB681B0A03F00703184665
:101A8C00BD4680BC704700BF00ED00E080B483B061
:101A9C0000AF0346FB7197F90730002B0BDBFB798A
:101AAC0003F01F02064997F907305B09012000FA81
:101ABC0002F241F8232000BF0C37BD4680BC7047B2
:101ACC0000E100E080B483B000AF03463960FB71E5
:101ADC0097F90730002B0ADB3B68DAB20C4997F90F
:101AEC0007301201D2B20B4483F800230AE03B68A2
:101AFC00DAB20849FB7903F00F03043B1201D2B2AE
:101B0C000B441A7600BF0C37BD4680BC704700BF33
:101B1C0000E100E000ED00E080B489B000AFF860B7
:101B2C00B9607A60FB6803F00703FB61FB69C3F1E2
:101B3C000703042B28BF0423BB61FB690433062B6A
:101B4C0002D9FB69033B00E000237B614FF0FF32BD
:101B5C00BB6902FA03F3DA43BB681A407B699A400B
:101B6C004FF0FF317B6901FA03F3D9437B680B40DB
:101B7C00134318462437BD4680BC704780B582B0ED
:101B8C0000AF78607B68013BB3F1807F01D3012308
:101B9C000FE00A4A7B68013B53600F214FF0FF3086
:101BAC00FFF790FF054B00229A60044B07221A6046
:101BBC00002318460837BD4680BD00BF10E000E08A
:101BCC0080B582B000AF78607868FFF72DFF00BF5A
:101BDC000837BD4680BD80B586B000AF0346B960FE
:101BEC007A60FB7300237B61FFF742FF78617A68B0
:101BFC00B9687869FFF790FF024697F90F301146E4
:101C0C001846FFF75FFF00BF1837BD4680BD80B593
:101C1C0082B000AF0346FB7197F907301846FFF707
:101C2C0035FF00BF0837BD4680BD80B582B000AF20
:101C3C0078607868FFF7A2FF034618460837BD4660
:101C4C0080BD000080B48BB000AF78603960002399
:101C5C007B6200233B6269E101227B6A02FA03F397
:101C6C00FB613B681B68FA691340BB61BA69FB698D
:101C7C009A4240F058813B685B689A4A93425ED026
:101C8C00984A934275D8984A934258D0964A9342B0
:101C9C006FD8964A934252D0944A934269D8944A48
:101CAC0093424CD0924A934263D8924A934246D084
:101CBC00904A93425DD8122B2AD8122B59D801A2E4
:101CCC0052F823F04B1D0008251D0008371D000895
:101CDC00791D00087F1D00087F1D00087F1D00086E
:101CEC007F1D00087F1D00087F1D00087F1D000858
:101CFC007F1D00087F1D00087F1D00087F1D000848
:101D0C007F1D00087F1D00082D1D0008411D0008C7
:101D1C00794A934213D02CE03B68DB683B6229E0A4
:101D2C003B68DB6804333B6224E03B68DB680833C8
:101D3C003B621FE03B68DB680C333B621AE03B689C
:101D4C009B68002B02D104233B6213E03B689B6829
:101D5C00012B05D108233B627B68FA691A6109E003
:101D6C0008233B627B68FA695A6103E000233B62FB
:101D7C0000E000BFBB69FF2B01D87B6801E07B68EA
:101D8C0004337B61BB69FF2B02D87B6A9B0002E0AA
:101D9C007B6A083B9B003B617B691A680F213B699E
:101DAC0001FA03F3DB431A40396A3B6901FA03F386
:101DBC001A437B691A603B685B6803F08053002B05
:101DCC0000F0B1804D4B9B694C4A43F00103936189
:101DDC004A4B9B6903F00103BB60BB68484A7B6AB2
:101DEC009B08023352F82330FB607B6A03F0030339
:101DFC009B000F2202FA03F3DB43FA681340FB60EB
:101E0C007B68404A934213D07B683F4A93420DD083
:101E1C007B683E4A934207D07B683D4A934201D18E
:101E2C00032306E0042304E0022302E0012300E084
:101E3C0000237A6A02F0030292009340FA6813437B
:101E4C00FB602F497B6A9B080233FA6841F8232018
:101E5C003B685B6803F48013002B06D02D4B9A680B
:101E6C002C49BB6913438B6006E02A4B9A68BB690B
:101E7C00DB43284913408B603B685B6803F4001319
:101E8C00002B06D0234BDA682249BB691343CB6085
:101E9C0006E0204BDA68BB69DB431E491340CB607C
:101EAC003B685B6803F40033002B06D0194B5A686F
:101EBC001849BB6913434B6006E0164B5A68BB6963
:101ECC00DB43144913404B603B685B6803F480337D
:101EDC00002B21D00F4B1A680E49BB6913430B60C2
:101EEC0021E000BF00003210000031100000221071
:101EFC000000211000001210000011100010024010
:101F0C000000014000080140000C0140001001409D
:101F1C0000140140000401400B4B1A68BB69DB4301
:101F2C00094913400B607B6A01337B623B681A687A
:101F3C007B6A22FA03F3002B7FF48EAE00BF00BF46
:101F4C002C37BD4680BC70470004014080B485B07E
:101F5C0000AF78600B467B807B689A687B88134067
:101F6C00002B02D00123FB7301E00023FB73FB7BEE
:101F7C0018461437BD4680BC704780B483B000AFA0
:101F8C0078600B467B8013467B707B78002B03D0EC
:101F9C007A887B681A6103E07B881A047B681A6173
:101FAC0000BF0C37BD4680BC7047000080B586B0C2
:101FBC0000AF78607B68002B01D101236CE27B6859
:101FCC001B6803F00103002B00F08780924B5B68C9
:101FDC0003F00C03042B0CD08F4B5B6803F00C0349
:101FEC00082B12D18C4B5B6803F48033B3F5803F24
:101FFC000BD1894B1B6803F40033002B6CD07B682E
:10200C005B68002B68D1012346E27B685B68B3F503
:10201C00803F06D1804B1B687F4A43F480331360AA
:10202C002EE07B685B68002B0CD17B4B1B687A4ADB
:10203C0023F480331360784B1B68774A23F4802396
:10204C0013601DE07B685B68B3F5A02F0CD1724B5D
:10205C001B68714A43F4802313606F4B1B686E4AF4
:10206C0043F4803313600BE06B4B1B686A4A23F418
:10207C0080331360684B1B68674A23F4802313601A
:10208C007B685B68002B13D0FFF7C4FC386108E059
:10209C00FFF7C0FC02463B69D31A642B01D903231A
:1020AC00FAE15D4B1B6803F40033002BF0D014E015
:1020BC00FFF7B0FC386108E0FFF7ACFC02463B6967
:1020CC00D31A642B01D90323E6E1534B1B6803F4A9
:1020DC000033002BF0D100E000BF7B681B6803F0DD
:1020EC000203002B63D04C4B5B6803F00C03002BFA
:1020FC000BD0494B5B6803F00C03082B1CD1464BEF
:10210C005B6803F48033002B16D1434B1B6803F040
:10211C000203002B05D07B681B69012B01D0012326
:10212C00BAE13D4B1B6823F0F8027B685B69DB006E
:10213C00394913430B603AE07B681B69002B20D0B4
:10214C00364B01221A60FFF765FC386108E0FFF797
:10215C0061FC02463B69D31A022B01D903239BE194
:10216C002D4B1B6803F00203002BF0D02A4B1B688D
:10217C0023F0F8027B685B69DB00274913430B6093
:10218C0015E0264B00221A60FFF744FC386108E08A
:10219C00FFF740FC02463B69D31A022B01D90323FB
:1021AC007AE11D4B1B6803F00203002BF0D17B6816
:1021BC001B6803F00803002B3AD07B689B69002B4B
:1021CC0019D0174B01221A60FFF724FC386108E084
:1021DC00FFF720FC02463B69D31A022B01D90323DB
:1021EC005AE10D4B5B6A03F00203002BF0D0012087
:1021FC0000F0CCFA1CE00A4B00221A60FFF70AFC34
:10220C0038610FE0FFF706FC02463B69D31A022B3C
:10221C0008D9032340E100BF0010024000004242F5
:10222C00800442429E4B5B6A03F00203002BE9D10F
:10223C007B681B6803F00403002B00F0A6800023CE
:10224C00FB75974BDB6903F08053002B0DD1944B3E
:10225C00DB69934A43F08053D361914BDB6903F004
:10226C008053BB60BB680123FB758E4B1B6803F46A
:10227C008073002B18D18B4B1B688A4A43F48073F4
:10228C001360FFF7C7FB386108E0FFF7C3FB02469A
:10229C003B69D31A642B01D90323FDE0814B1B68E6
:1022AC0003F48073002BF0D07B68DB68012B06D124
:1022BC007B4B1B6A7A4A43F0010313622DE07B6867
:1022CC00DB68002B0CD1764B1B6A754A23F001039B
:1022DC001362734B1B6A724A23F0040313621CE0F3
:1022EC007B68DB68052B0CD16D4B1B6A6C4A43F089
:1022FC00040313626A4B1B6A694A43F001031362BD
:10230C000BE0674B1B6A664A23F001031362644BB4
:10231C001B6A634A23F0040313627B68DB68002B9F
:10232C0015D0FFF777FB38610AE0FFF773FB024625
:10233C003B69D31A41F28832934201D90323ABE0B3
:10234C00574B1B6A03F00203002BEED014E0FFF78F
:10235C0061FB38610AE0FFF75DFB02463B69D31A6B
:10236C0041F28832934201D9032395E04C4B1B6A0E
:10237C0003F00203002BEED1FB7D012B05D1484B62
:10238C00DB69474A23F08053D3617B68DB69002B00
:10239C0000F08180424B5B6803F00C03082B61D08A
:1023AC007B68DB69022B46D13F4B00221A60FFF79A
:1023BC0031FB386108E0FFF72DFB02463B69D31A6D
:1023CC00022B01D9032367E0354B1B6803F0007324
:1023DC00002BF0D17B681B6AB3F5803F08D1304BE2
:1023EC005B6823F400327B689B682D4913434B6078
:1023FC002B4B5B6823F474127B68196A7B685B6AED
:10240C000B43274913434B60274B01221A60FFF7FC
:10241C0001FB386108E0FFF7FDFA02463B69D31A6D
:10242C00022B01D9032337E01D4B1B6803F000730B
:10243C00002BF0D02FE01C4B00221A60FFF7EAFAB9
:10244C00386108E0FFF7E6FA02463B69D31A022B23
:10245C0001D9032320E0124B1B6803F00073002BFF
:10246C00F0D118E07B68DB69012B01D1012313E06B
:10247C000B4B5B68FB60FB6803F480327B681B6A68
:10248C009A4206D1FB6803F470127B685B6A9A422D
:10249C0001D0012300E0002318461837BD4680BD4B
:1024AC0000100240007000406000424280B584B0D1
:1024BC0000AF786039607B68002B01D10123D0E03C
:1024CC006A4B1B6803F007033A689A4210D9674BB2
:1024DC001B6823F0070265493B6813430B60634B91
:1024EC001B6803F007033A689A4201D00123B8E055
:1024FC007B681B6803F00203002B20D07B681B68F1
:10250C0003F00403002B05D0594B5B68584A43F485
:10251C00E06353607B681B6803F00803002B05D055
:10252C00534B5B68524A43F460535360504B5B68A7
:10253C0023F0F0027B689B684D4913434B607B682A
:10254C001B6803F00103002B40D07B685B68012BF8
:10255C0007D1474B1B6803F40033002B15D1012323
:10256C007FE07B685B68022B07D1414B1B6803F053
:10257C000073002B09D1012373E03D4B1B6803F062
:10258C000203002B01D101236BE0394B5B6823F074
:10259C0003027B685B68364913434B60FFF73AFADA
:1025AC00F8600AE0FFF736FA0246FB68D31A41F2EC
:1025BC008832934201D9032353E02D4B5B6803F01F
:1025CC000C027B685B689B009A42EBD1274B1B6823
:1025DC0003F007033A689A4210D2244B1B6823F08D
:1025EC00070222493B6813430B60204B1B6803F026
:1025FC0007033A689A4201D0012332E07B681B68DA
:10260C0003F00403002B08D0194B5B6823F4E06241
:10261C007B68DB68164913434B607B681B6803F0CF
:10262C000803002B09D0124B5B6823F460527B68C3
:10263C001B69DB000E4913434B6000F021F8024686
:10264C000B4B5B681B0903F00F030A49CB5C22FAA6
:10265C0003F3094A1360094B1B681846FFF798F9F6
:10266C00002318461037BD4680BD00BF0020024035
:10267C00001002400C4600088C0000209000002046
:10268C0080B487B000AF0023FB600023BB60002345
:10269C007B6100237B6000233B611E4B5B68FB600E
:1026AC00FB6803F00C03042B02D0082B03D027E0AB
:1026BC00194B3B6127E0FB689B0C03F00F03174A97
:1026CC00D35C7B60FB6803F48033002B10D0114B80
:1026DC005B685B0C03F00103114AD35CBB607B6845
:1026EC000D4A02FB03F2BB68B2FBF3F37B6104E01F
:1026FC007B680C4A02FB03F37B617B693B6102E064
:10270C00054B3B6100BF3B6918461C37BD4680BC7E
:10271C00704700BF0010024000127A0024460008E7
:10272C003446000800093D0080B400AF024B1B6822
:10273C001846BD4680BC70478C00002080B500AFA9
:10274C00FFF7F2FF0246054B5B681B0A03F0070319
:10275C000349CB5C22FA03F3184680BD00100240FB
:10276C001C46000880B500AFFFF7DEFF0246054BA4
:10277C005B68DB0A03F007030349CB5C22FA03F323
:10278C00184680BD001002401C46000880B485B07D
:10279C0000AF78600A4B1B680A4AA2FB03235B0A52
:1027AC007A6802FB03F3FB6000BFFB685A1EFA60F9
:1027BC00002BF9D100BF00BF1437BD4680BC704759
:1027CC008C000020D34D621080B582B000AF7860D1
:1027DC007B68002B01D1012341E07B6893F83D30ED
:1027EC00DBB2002B06D17B68002283F83C20786892
:1027FC00FEF770FF7B68022283F83D207B681A6825
:10280C007B6804331946104600F030FC7B680122CB
:10281C0083F846207B68012283F83E207B680122E6
:10282C0083F83F207B68012283F840207B680122DB
:10283C0083F841207B68012283F842207B680122C7
:10284C0083F843207B68012283F844207B680122B3
:10285C0083F845207B68012283F83D20002318462D
:10286C000837BD4680BD000080B485B000AF7860ED
:10287C007B6893F83D30DBB2012B01D001233AE0A9
:10288C007B68022283F83D207B681B68DA687B68D2
:10289C001B6842F00102DA607B681B68184A93429D
:1028AC000ED07B681B68B3F1804F09D07B681B6826
:1028BC00144A934204D07B681B68134A934211D18B
:1028CC007B681B689B6803F00703FB60FB68062BA7
:1028DC0010D07B681B681A687B681B6842F0010289
:1028EC001A6007E07B681B681A687B681B6842F0FB
:1028FC0001021A60002318461437BD4680BC70478D
:10290C00002C0140000400400008004080B582B05B
:10291C0000AF78607B68002B01D1012341E07B681C
:10292C0093F83D30DBB2002B06D17B68002283F894
:10293C003C20786800F039F87B68022283F83D204F
:10294C007B681A687B6804331946104600F08EFBCE
:10295C007B68012283F846207B68012283F83E20A5
:10296C007B68012283F83F207B68012283F840209A
:10297C007B68012283F841207B68012283F8422086
:10298C007B68012283F843207B68012283F8442072
:10299C007B68012283F845207B68012283F83D2067
:1029AC00002318460837BD4680BD80B483B000AF05
:1029BC00786000BF0C37BD4680BC704780B584B0D2
:1029CC0000AF786039603B68002B09D17B6893F8C5
:1029DC003E30DBB2012B14BF01230023DBB222E01B
:1029EC003B68042B09D17B6893F83F30DBB2012B99
:1029FC0014BF01230023DBB215E03B68082B09D17F
:102A0C007B6893F84030DBB2012B14BF0123002309
:102A1C00DBB208E07B6893F84130DBB2012B14BFCA
:102A2C0001230023DBB2002B01D001235EE03B68C5
:102A3C00002B04D17B68022283F83E2013E03B6814
:102A4C00042B04D17B68022283F83F200BE03B6807
:102A5C00082B04D17B68022283F8402003E07B68BA
:102A6C00022283F841207B681B68012239681846D2
:102A7C0000F07CFD7B681B681E4A934207D17B6883
:102A8C001B685A6C7B681B6842F400425A647B6872
:102A9C001B68184A93420ED07B681B68B3F1804FB9
:102AAC0009D07B681B68144A934204D07B681B686E
:102ABC00124A934211D17B681B689B6803F0070391
:102ACC00FB60FB68062B10D07B681B681A687B6860
:102ADC001B6842F001021A6007E07B681B681A68E9
:102AEC007B681B6842F001021A60002318461037FD
:102AFC00BD4680BD002C0140000400400008004091
:102B0C0080B582B000AF78607B681B681B6903F0EE
:102B1C000203022B22D17B681B68DB6803F00203E3
:102B2C00022B1BD17B681B686FF002021A617B6859
:102B3C0001221A777B681B689B6903F00303002B47
:102B4C0003D0786800F076FA05E0786800F069FA4E
:102B5C00786800F078FA7B6800221A777B681B682B
:102B6C001B6903F00403042B22D17B681B68DB6810
:102B7C0003F00403042B1BD17B681B686FF0040269
:102B8C001A617B6802221A777B681B689B6903F4C5
:102B9C004073002B03D0786800F04CFA05E078689D
:102BAC0000F03FFA786800F04EFA7B6800221A7742
:102BBC007B681B681B6903F00803082B22D17B6818
:102BCC001B68DB6803F00803082B1BD17B681B68B0
:102BDC006FF008021A617B6804221A777B681B6805
:102BEC00DB6903F00303002B03D0786800F022FAB2
:102BFC0005E0786800F015FA786800F024FA7B6834
:102C0C0000221A777B681B681B6903F01003102BDA
:102C1C0022D17B681B68DB6803F01003102B1BD1DF
:102C2C007B681B686FF010021A617B6808221A77A8
:102C3C007B681B68DB6903F44073002B03D0786856
:102C4C0000F0F8F905E0786800F0EBF9786800F02E
:102C5C00FAF97B6800221A777B681B681B6903F002
:102C6C000103012B0ED17B681B68DB6803F00103A9
:102C7C00012B07D17B681B686FF001021A61786821
:102C8C00FEF7E0FA7B681B681B6903F08003802B5E
:102C9C000ED17B681B68DB6803F08003802B07D1A7
:102CAC007B681B686FF080021A61786800F0E9FCA1
:102CBC007B681B681B6903F04003402B0ED17B68BB
:102CCC001B68DB6803F04003402B07D17B681B6853
:102CDC006FF040021A61786800F0BEF97B681B68DF
:102CEC001B6903F02003202B0ED17B681B68DB686B
:102CFC0003F02003202B07D17B681B686FF02002A8
:102D0C001A61786800F0B4FC00BF0837BD4680BD7E
:102D1C0080B586B000AFF860B9607A600023FB75AF
:102D2C00FB6893F83C30012B01D10223AEE0FB6829
:102D3C00012283F83C207B680C2B00F29F8001A2BF
:102D4C0052F823F0852D0008892E0008892E0008E2
:102D5C00892E0008C52D0008892E0008892E000830
:102D6C00892E0008072E0008892E0008892E0008DD
:102D7C00892E0008472E0008FB681B68B9681846A6
:102D8C0000F0D6F9FB681B689A69FB681B6842F077
:102D9C0008029A61FB681B689A69FB681B6822F041
:102DAC0004029A61FB681B689969BB681A69FB6825
:102DBC001B680A439A6164E0FB681B68B968184693
:102DCC0000F01CFAFB681B689A69FB681B6842F4EC
:102DDC0000629A61FB681B689A69FB681B6822F4A5
:102DEC0080629A61FB681B689969BB681B691A024F
:102DFC00FB681B680A439A6143E0FB681B68B9686F
:102E0C00184600F065FAFB681B68DA69FB681B68FA
:102E1C0042F00802DA61FB681B68DA69FB681B6820
:102E2C0022F00402DA61FB681B68D969BB681A6975
:102E3C00FB681B680A43DA6123E0FB681B68B9680E
:102E4C00184600F0AFFAFB681B68DA69FB681B6870
:102E5C0042F40062DA61FB681B68DA69FB681B6884
:102E6C0022F48062DA61FB681B68D969BB681B6954
:102E7C001A02FB681B680A43DA6102E00123FB7546
:102E8C0000BFFB68002283F83C20FB7D18461837F6
:102E9C00BD4680BD80B584B000AF7860396000233A
:102EAC00FB737B6893F83C30012B01D10223B4E017
:102EBC007B68012283F83C207B68022283F83D204A
:102ECC007B681B689B68BB60BB6823F07703BB60A7
:102EDC00BB6823F47F43BB607B681B68BA689A604D
:102EEC003B681B68B3F5005F3ED0B3F5005F00F2A2
:102EFC008780B3F5805F00F08680B3F5805F7FD864
:102F0C00702B1AD0702B7BD8602B50D0602B77D8BD
:102F1C00502B3CD0502B73D8402B58D0402B6FD813
:102F2C00302B64D0302B6BD8202B60D0202B67D863
:102F3C00002B5CD0102B5AD062E07B6818683B6881
:102F4C0099683B685A683B68DB6800F0F0FA7B686C
:102F5C001B689B68BB60BB6843F07703BB607B68F6
:102F6C001B68BA689A604FE07B6818683B68996880
:102F7C003B685A683B68DB6800F0D9FA7B681B68D1
:102F8C009A687B681B6842F480429A603CE07B68DC
:102F9C0018683B6859683B68DB681A4600F050FAC1
:102FAC007B681B685021184600F0A7FA2CE07B6860
:102FBC0018683B6859683B68DB681A4600F06EFA83
:102FCC007B681B686021184600F097FA1CE07B6850
:102FDC0018683B6859683B68DB681A4600F030FAA1
:102FEC007B681B684021184600F087FA0CE07B6870
:102FFC001A683B681B681946104600F07EFA03E01D
:10300C000123FB7300E000BF7B68012283F83D20A5
:10301C007B68002283F83C20FB7B18461037BD46AA
:10302C0080BD80B483B000AF786000BF0C37BD4664
:10303C0080BC704780B483B000AF786000BF0C37A1
:10304C00BD4680BC704780B483B000AF786000BFD1
:10305C000C37BD4680BC704780B483B000AF78603D
:10306C0000BF0C37BD4680BC7047000080B485B0F3
:10307C0000AF786039607B681B68FB607B68294A0D
:10308C0093420BD07B68B3F1804F07D07B68264A04
:10309C00934203D07B68254A934208D1FB6823F006
:1030AC007003FB603B685B68FA681343FB607B68EA
:1030BC001C4A93420BD07B68B3F1804F07D07B68DE
:1030CC00194A934203D07B68184A934208D1FB6893
:1030DC0023F44073FB603B68DB68FA681343FB60C6
:1030EC00FB6823F080023B685B691343FB607B68E1
:1030FC00FA681A603B689A687B68DA623B681A68FF
:10310C007B689A627B68074A934203D13B681A69D1
:10311C007B681A637B6801225A6100BF1437BD4675
:10312C0080BC7047002C01400004004000080040A7
:10313C0080B487B000AF786039607B681B6A7B61B4
:10314C007B681B6A23F001027B681A627B685B68F0
:10315C003B617B689B69FB60FB6823F07003FB6041
:10316C00FB6823F00303FB603B681B68FA6813439E
:10317C00FB607B6923F002037B613B689B687A6987
:10318C0013437B617B681C4A93420CD17B6923F00F
:10319C0008037B613B68DB687A6913437B617B695D
:1031AC0023F004037B617B68134A934211D13B6982
:1031BC0023F480733B613B6923F400733B613B68F0
:1031CC005B693A6913433B613B689B693A691343FA
:1031DC003B617B683A695A607B68FA689A613B6824
:1031EC005A687B685A637B687A691A6200BF1C371D
:1031FC00BD4680BC704700BF002C014080B487B036
:10320C0000AF786039607B681B6A7B617B681B6AE6
:10321C0023F010027B681A627B685B683B617B68F9
:10322C009B69FB60FB6823F4E043FB60FB6823F4C1
:10323C004073FB603B681B681B02FA681343FB601E
:10324C007B6923F020037B613B689B681B017A69D7
:10325C0013437B617B681D4A93420DD17B6923F03C
:10326C0080037B613B68DB681B017A6913437B61DC
:10327C007B6923F040037B617B68144A934213D132
:10328C003B6923F480633B613B6923F400633B613E
:10329C003B685B699B003A6913433B613B689B69E4
:1032AC009B003A6913433B617B683A695A607B68BF
:1032BC00FA689A613B685A687B689A637B687A699A
:1032CC001A6200BF1C37BD4680BC7047002C014001
:1032DC0080B487B000AF786039607B681B6A7B6113
:1032EC007B681B6A23F480727B681A627B685B685C
:1032FC003B617B68DB69FB60FB6823F07003FB6060
:10330C00FB6823F00303FB603B681B68FA681343FC
:10331C00FB607B6923F400737B613B689B681B0239
:10332C007A6913437B617B681D4A93420DD17B699B
:10333C0023F400637B613B68DB681B027A691343EF
:10334C007B617B6923F480637B617B68144A9342C5
:10335C0013D13B6923F480533B613B6923F4005345
:10336C003B613B685B691B013A6913433B613B68FA
:10337C009B691B013A6913433B617B683A695A604C
:10338C007B68FA68DA613B685A687B68DA637B6849
:10339C007A691A6200BF1C37BD4680BC704700BFFB
:1033AC00002C014080B487B000AF786039607B6836
:1033BC001B6A3B617B681B6A23F480527B681A6230
:1033CC007B685B687B617B68DB69FB60FB6823F473
:1033DC00E043FB60FB6823F44073FB603B681B68B5
:1033EC001B02FA681343FB603B6923F400533B61F7
:1033FC003B689B681B033A6913433B617B680F4A2C
:10340C00934209D17B6923F480437B613B685B6900
:10341C009B017A6913437B617B687A695A607B688C
:10342C00FA68DA613B685A687B681A647B683A69A7
:10343C001A6200BF1C37BD4680BC7047002C01408F
:10344C0080B487B000AFF860B9607A60FB681B6A23
:10345C007B61FB681B6A23F00102FB681A62FB6844
:10346C009B693B613B6923F0F0033B617B681B016B
:10347C003A6913433B617B6923F00A037B617A69E8
:10348C00BB6813437B61FB683A699A61FB687A6994
:10349C001A6200BF1C37BD4680BC704780B487B031
:1034AC0000AFF860B9607A60FB681B6A7B61FB68EF
:1034BC001B6A23F01002FB681A62FB689B693B6174
:1034CC003B6923F470433B617B681B033A691343EC
:1034DC003B617B6923F0A0037B61BB681B017A69AC
:1034EC0013437B61FB683A699A61FB687A691A62DB
:1034FC0000BF1C37BD4680BC704780B485B000AFA0
:10350C00786039607B689B68FB60FB6823F0700314
:10351C00FB603A68FB68134343F00703FB607B686E
:10352C00FA689A6000BF1437BD4680BC704780B4FF
:10353C0087B000AFF860B9607A603B60FB689B684D
:10354C007B617B6923F47F437B613B681A027B6858
:10355C001A43BB6813437A6913437B61FB687A692E
:10356C009A6000BF1C37BD4680BC704780B487B0E2
:10357C0000AFF860B9607A60BB6803F01F030122EA
:10358C0002FA03F37B61FB681A6A7B69DB431A401E
:10359C00FB681A62FB681A6ABB6803F01F03796840
:1035AC0001FA03F31A43FB681A6200BF1C37BD46CD
:1035BC0080BC704780B485B000AF786039607B68A0
:1035CC0093F83C30012B01D1022346E07B680122A9
:1035DC0083F83C207B68022283F83D207B681B68C3
:1035EC005B68FB607B681B689B68BB60FB6823F0B7
:1035FC007003FB603B681B68FA681343FB607B68D5
:10360C001B68FA685A607B681B68164A93420ED096
:10361C007B681B68B3F1804F09D07B681B68124A2A
:10362C00934204D07B681B68104A93420CD1BB6850
:10363C0023F08003BB603B685B68BA681343BB60D4
:10364C007B681B68BA689A607B68012283F83D200E
:10365C007B68002283F83C20002318461437BD46B3
:10366C0080BC7047002C0140000400400008004062
:10367C0080B483B000AF786000BF0C37BD4680BC0F
:10368C00704780B483B000AF786000BF0C37BD4684
:10369C0080BC704780B582B000AF78607B68002B2F
:1036AC0001D1012342E07B6893F84130DBB2002B5F
:1036BC0006D17B68002283F840207868FEF774F806
:1036CC007B68242283F841207B681B68DA687B685E
:1036DC001B6822F40052DA60786800F01DF97B68F0
:1036EC001B681A697B681B6822F490421A617B681C
:1036FC001B685A697B681B6822F02A025A617B6836
:10370C001B68DA687B681B6842F40052DA607B68DD
:10371C0000225A647B68202283F841207B68202297
:10372C0083F842207B6800225A630023184608372E
:10373C00BD4680BD80B58AB002AFF860B9603B6011
:10374C001346FB8000237B61FB6893F84130DBB2AE
:10375C00202B6DD1BB68002B02D0FB88002B01D134
:10376C00012366E0FB6800225A64FB68212283F87F
:10377C004120FEF74FF97861FB68FA889A84FB6860
:10378C00FA88DA84FB689B68B3F5805F08D1FB6824
:10379C001B69002B04D10023FB61BB68BB6103E0F8
:1037AC00BB68FB610023BB612AE03B6800937B692B
:1037BC0000228021F86800F040F80346002B01D06D
:1037CC00032336E0FB69002B0BD1BB691B881A461F
:1037DC00FB681B68C2F308025A60BB690233BB6109
:1037EC0007E0FB691A78FB681B685A60FB690133B8
:1037FC00FB61FB68DB8C9BB2013B9AB2FB68DA8401
:10380C00FB68DB8C9BB2002BCFD13B6800937B69B0
:10381C0000224021F86800F010F80346002B01D07C
:10382C00032306E0FB68202283F84120002300E0FC
:10383C00022318462037BD4680BD80B590B000AF3E
:10384C00F860B9603B601346FB7150E0BB6CB3F1A0
:10385C00FF3F4CD0BB6C002B07D0FEF7DBF80246C9
:10386C003B68D31ABA6C9A4241D2FB681B680C3382
:10387C00BB62BB6A53E8003F7B627B6A23F4D07364
:10388C00FB63FB681B680C33FA6B7A633B63396B25
:10389C007A6B41E80023FB62FB6A002BE5D1FB68E5
:1038AC001B6814337B617B6953E8003F3B613B69C8
:1038BC0023F00103BB63FB681B681433BA6B3A62D9
:1038CC00FB61F9693A6A41E80023BB61BB69002BD3
:1038DC00E5D1FB68202283F84120FB68202283F885
:1038EC004220FB68002283F8402003230FE0FB6892
:1038FC001B681A68BB681340BA689A420CBF012354
:10390C000023DBB21A46FB799A429FD0002318465B
:10391C004037BD4680BD000080B584B000AF7860F4
:10392C007B681B681B6923F440517B68DA687B68F1
:10393C001B680A431A617B689A687B681B691A4387
:10394C007B685B691343BB607B681B68DB6823F493
:10395C00B05323F00C037A681268B9680B43D36038
:10396C007B681B685B6923F440717B689A697B6890
:10397C001B680A435A617B681B682C4A934203D12B
:10398C00FEF7F0FEF86002E0FEF7D8FEF860FA6889
:10399C0013469B0013449A001A447B685B689B0097
:1039AC00B2FBF3F3224AA2FB03235B091901FA6869
:1039BC0013469B0013449A001A447B685B689B0077
:1039CC00B2FBF3F21A4BA3FB02035B09642000FB6E
:1039DC0003F3D31A1B013233154AA2FB03235B09F1
:1039EC0003F0F0031944FA6813469B0013449A0041
:1039FC001A447B685B689B00B2FBF3F20C4BA3FB95
:103A0C0002035B09642000FB03F3D31A1B0132335E
:103A1C00074AA2FB03235B0903F00F027B681B68B8
:103A2C000A449A6000BF1037BD4680BD0038014083
:103A3C001F85EB51014B1868704700BF98000020A0
:103A4C0070B500260C4D0D4C641BA410A64209D178
:103A5C0000F06CFC00260A4D0A4C641BA410A64214
:103A6C0005D170BD55F8043B98470136EEE755F883
:103A7C00043B98470136F2E76C4600086C46000898
:103A8C006C46000870460008024B0146186800F0AE
:103A9C005FB800BF98000020024B0146186800F088
:103AAC000BB800BF9800002003460244934200D19B
:103ABC00704703F8011BF9E738B50546002943D0D8
:103ACC0051F8043C0C1F002BB8BFE41800F0CAF8E6
:103ADC001E4A1368104633B9636014602846BDE86B
:103AEC00384000F0C5B8A3420AD921686218934245
:103AFC0001BF1A685B685218226063600460EDE7CE
:103B0C001A465B680BB1A342FAD911685018A0424F
:103B1C000BD120680144501883421160DED1186823
:103B2C005B68014411605360D8E702D90C232B6009
:103B3C00D4E7206821188B4201BF19685B6809180B
:103B4C00216063605460C9E738BD00BF9401002058
:103B5C00F8B5CD1C25F0030508350C2D38BF0C2508
:103B6C00002D064601DBA94203D90C23336000204B
:103B7C00F8BD00F077F821490A6814469CB9204F2B
:103B8C003B6823B92146304600F03CF838602946A2
:103B9C00304600F037F8431C23D10C2330463360F9
:103BAC0000F066F8E3E723685B1B17D40B2B03D9F3
:103BBC0023601C44256004E06368A2420CBF0B60C8
:103BCC005360304600F054F804F10B00231D20F034
:103BDC000700C21ACCD01B1AA350C9E7224664684E
:103BEC00CCE7C41C24F00304A042E3D0211A3046D5
:103BFC0000F008F80130DDD1CFE700BF94010020C0
:103C0C009801002038B50023054D044608462B606A
:103C1C00FDF746FE431C02D12B6803B1236038BD6F
:103C2C00080300200EB46FF0004100B59CB01DAB32
:103C3C0002900690079104910848094953F8042B07
:103C4C000591006802A9019300F074F80022029B10
:103C5C001A701CB05DF804EB03B07047980000209C
:103C6C000802FFFF014800F0FBBA00BF1003002060
:103C7C00014800F0F6BA00BF100300202DE9F04710
:103C8C008E6882469E420C4690461F4638D88A89DA
:103C9C0012F4906F32D0256809690133A5EB010944
:103CAC0065694B4405EB450505EBD5756D109D42DB
:103CBC0038BF1D46530531D52946FFF749FF064647
:103CCC0050B90C234FF0FF30CAF80030A38943F0F1
:103CDC004003A381BDE8F0874A46216900F0D0FA81
:103CEC00A38923F4906343F08003A38126614E449F
:103CFC0026603E466561A5EB0905A560BE4200D96C
:103D0C003E4632464146206800F0C8FAA368226855
:103D1C009B1B32440020A3602260DBE72A4600F0A4
:103D2C00D7FA06460028E1D150462169FFF7C4FEB8
:103D3C00C7E700002DE9F04F98468B8907461B0614
:103D4C000D4614469DB00ED50B6963B94021FFF7A3
:103D5C00FFFE2860286120B90C233B604FF0FF3038
:103D6C00D1E040236B610023099320238DF8293087
:103D7C0030234FF00109CDF80C80DFF8A4818DF8C9
:103D8C002A3023469A4613F8012B0AB1252AF9D179
:103D9C00BAEB040B0BD05B46224629463846FFF79C
:103DAC006DFF013000F0AA80099A5A4409929AF8E2
:103DBC000030002B00F0A28000234FF0FF32CDE941
:103DCC0005230AF1010A049307938DF853301A93D3
:103DDC005446052214F8011B514800F043FA049A8A
:103DEC00D8B9D00644BF20238DF85330110744BFF7
:103DFC002B238DF853309AF800302A2B15D05446CB
:103E0C0000204FF00A0C079A214611F8013B303B79
:103E1C00092B4ED9B0B1079214E0A0EB080309FAB4
:103E2C0003F31343A2460493D2E7039B191D1B68AB
:103E3C000391002BBBBF5B4242F002020793079336
:103E4C00B8BF049223782E2B0CD163782A2B35D152
:103E5C00039B02341A1D1B680392002BB8BF4FF052
:103E6C00FF330593DFF8C8A003225046217800F0F9
:103E7C00F9F940B14023A0EB0A0003FA00F0049BCF
:103E8C0001340343049314F8011B062225488DF8D2
:103E9C00281000F0E7F9002838D0234B1BBB039BFC
:103EAC00073323F0070308330393099B3344099327
:103EBC0067E70C4601200CFB0232A5E700234FF00C
:103ECC000A0C194601340593204610F8012B303AA0
:103EDC00092A03D9002BC5D00591C3E70446012359
:103EEC000CFB0121F0E703AB00932A4638460F4B3D
:103EFC0004A9AFF30080421C0646D6D1AB895B0601
:103F0C003FF52CAF09981DB0BDE8F08F03AB0093C3
:103F1C002A463846054B04A900F07CF8EBE700BFB5
:103F2C00364600084046000800000000893C0008A6
:103F3C003C4600082DE9F047164699468A680B69FD
:103F4C0007469342B8BF1346336091F843200C46A2
:103F5C00DDF820800AB1013333602368990642BF33
:103F6C00336802333360256815F0060506D104F179
:103F7C00190AE36832689B1AAB4228DC94F8432098
:103F8C00131E226818BF012392062DD449463846C9
:103F9C0004F14302C047013020D02368E56803F0E8
:103FAC000603042B18BF002532684FF00006A368E7
:103FBC0008BFAD1A226908BF25EAE5759342C4BF54
:103FCC009B1AED181A34B5421AD1002008E00123CF
:103FDC00524649463846C047013003D14FF0FF30B6
:103FEC00BDE8F0870135C4E73020E11881F84300C3
:103FFC005A1C94F845102244023382F84310C5E74A
:10400C000123224649463846C0470130E6D00136E6
:10401C00D9E700002DE9FF470C46277E9146782F03
:10402C0080469A460C9904F1430207D8622F0AD8AD
:10403C00002F00F0D980582F00F0A48004F1420624
:10404C0084F842703AE0A7F16303152BF6D801A06F
:10405C0050F823F0B9400008CD4000084940000852
:10406C00494000084940000849400008CD4000087C
:10407C0049400008494000084940000849400008F0
:10408C00DB410008FD400008BD4100084940000824
:10409C0049400008FD41000849400008FD40000867
:1040AC004940000849400008C54100080B6804F16C
:1040BC0042061A1D1B680A6084F842300123A4E0F2
:1040CC00256808682E0600F104030AD505680B6004
:1040DC00002D03DA2D236D4284F843300A235E4809
:1040EC0019E015F0400F05680B6018BF2DB2EFE713
:1040FC000B682568181D0860280601D51D6802E0AC
:10410C006906FBD51D886F2F0CBF08230A23524864
:10411C00002184F843106668002EA8BF2168A660B1
:10412C00A4BF21F0040121600DB9002E4DD016461C
:10413C00B5FBF3F103FB1157C75D06F8017D2F4664
:10414C00BB420D46F4D9082B0BD12368DF0708D5E9
:10415C00236961689942DEBF302306F8013C06F101
:10416C00FF36921B22614B4621464046CDF800A0FB
:10417C0003AAFFF7DFFE01304CD14FF0FF3004B043
:10418C00BDE8F087344884F845700E68236856F80B
:10419C00045B1F060E6014D5D90744BF43F02003FF
:1041AC0023601DB9236823F0200323601023AFE79D
:1041BC00236843F0200323607823284884F8453093
:1041CC00E3E75E0648BFADB2E6E71646BBE70B6811
:1041DC0026681D1D60690D6035061B6801D51860C9
:1041EC0002E07106FBD51880002316462361BAE75E
:1041FC000B681A1D0A601E6800213046626800F0C8
:10420C0031F808B1801B606063682361002384F877
:10421C004330A8E73246494640462369D04701302F
:10422C00ABD023689B0713D4E068039B9842B8BFBC
:10423C001846A4E70123324649464046D047013090
:10424C009BD00135E36803995B1AAB42F2DCEBE7D8
:10425C00002504F11906F5E7474600085846000802
:10426C0070477047034610B5C9B2024493421846D2
:10427C0001D1002003E0047801338C42F6D110BD4B
:10428C000A44914200F1FF3300D1704710B511F888
:10429C00014B914203F8014FF9D110BD884210B582
:1042AC0001EB020402D98442234607D8431EA142E3
:1042BC0008D011F8012B03F8012FF8E7014602444E
:1042CC008A4200D110BD13F8014D02F8014DF7E7F9
:1042DC00F8B5074614460E4621B91146BDE8F8401C
:1042EC00FFF736BC22B9FFF7E7FB25462846F8BD99
:1042FC0000F014F8A0420FD221463846FFF728FCF4
:10430C0005460028F2D031462246FFF7B9FF314668
:10431C003846FFF7D1FBE9E73546E7E751F8043CAF
:10432C00181F002BBCBF0B58C0187047F8B500BF46
:10433C00F8BC08BC9E467047F8B500BFF8BC08BC7A
:04434C009E467047D2
:104350004D616E75616C3A20526F616420313A2074
:104360005265640D0A526F616420323A20477265CB
:10437000656E0D0A0000000054756E696E673A2084
:104380005265640D0A54696D653A2025640D0A0072
:10439000526F616420313A205265640D0A54696D90
:1043A000653A25640D0A0000526F616420323A209C
:1043B000477265656E0D0A54696D653A25640D0A8C
:1043C00000000000526F616420323A2059656C6C25
:1043D0006F770D0A54696D653A25640D0A00000077
:1043E000526F616420313A20477265656E0D0A5440
:1043F000696D653A25640D0A00000000526F616422
:1044000020323A205265640D0A54696D653A25647C
:104410000D0A0000526F616420313A2059656C6CBE
:104420006F770D0A54696D653A25640D0A00000026
:104430004D616E75616C3A20526F616420313A2093
:10444000477265656E0D0A526F616420323A2052E0
:1044500065640D0A0000000054756E696E673A20AD
:1044600059656C6C6F770D0A54696D653A20256447
:104470000D0A000054756E696E673A205265640D2E
:104480000A496E6372656173652074696D65207495
:104490006F3A2025640D0A0054756E696E673A20E4
:1044A0005265640D0A54696D652073657420746FDC
:1044B0003A2025640D0A000054756E696E673A2033
:1044C000477265656E0D0A54696D653A2025640D65
:1044D0000A00000054756E696E673A2059656C6C6D
:1044E0006F770D0A496E6372656173652074696D3B
:1044F0006520746F3A2025640D0A000054756E69BA
:104500006E673A2059656C6C6F770D0A54696D655A
:104510002073657420746F3A2025640D0A00000032
:1045200054756E696E673A205265640D0A54696D60
:10453000653A2025640D0A0054756E696E673A204D
:10454000477265656E0D0A496E6372656173652019
:1045500074696D6520746F3A2025640D0A000000AF
:1045600054756E696E673A20477265656E0D0A5420
:10457000696D652073657420746F3A2025640D0A97
:10458000000000001B5B324A000000001B5B48007B
:10459000414444205441534B3A2046756E6374693C
:1045A0006F6E20706F696E74657220696E76616CD3
:1045B00069640D0A00000000414444205441534BFB
:1045C0003A205363686564756C65722066756C6C1F
:1045D0000D0A0000414444205441534B3A204164A9
:1045E00064656420256C750D0A0000004144442078
:1045F0005441534B3A204164646564206669727388
:104600007420256C750D0A00640000000000000095
:104610000000000001020304060708090000000072
:104620000102030402030405060708090A0B0C0D26
:104630000E0F10100102232D302B2000686C4C004F
:104640006566674546470030313233343536373892
:1046500039414243444546003031323334353637F0
:0C46600038396162636465660000000088
:04466C003101000810
:044670000D01000830
:104674000200100001000100000801400008014090
:10468400000C01400008014001000000010000008E
:104694000100000001000000010000000100000012
:1046A4000100000001000000010000000100000002
:1046B40001000000010000000100000001000000F2
:1046C4000100000001000000C8000000C800000054
:1046D400C8000000C8000000F40100002C01000024
:1046E400C8000000050000000300000002000000F4
:1046F4000C000000010000001E0000000024F40073
:1047040010000000010000009C00002000000000D8
:104714000000000000000000000000000000000095
:104724000000000000000000000000000000000085
:104734000000000000000000000000000000000075
:104744000000000000000000000000000000000065
:104754000000000000000000000000000000000055
:0C47640000000000000000000000000049
:0400000508001925B1
:00000001FF
