:020000040800F2
:1000000000500020BD190008CD180008D3180008C2
:10001000D9180008DF180008E518000800000000E3
:10002000000000000000000000000000EB180008C5
:10003000F718000800000000031900080F19000855
:10004000051A0008051A0008051A0008051A000814
:10005000051A0008051A0008051A0008051A000804
:10006000051A0008051A0008051A0008051A0008F4
:10007000051A0008051A0008051A0008051A0008E4
:10008000051A0008051A0008051A0008051A0008D4
:10009000051A0008051A0008051A0008051A0008C4
:1000A000051A0008051A0008051A0008051A0008B4
:1000B0001D190008051A0008051A0008051A00088D
:1000C000051A0008051A0008051A0008051A000894
:1000D000051A0008051A000831190008051A000859
:1000E000051A0008051A0008051A0008000000009B
:1000F0000000000000000000000000000000000000
:0C01000000000000000000005FF808F1A3
:10010C0010B5054C237833B9044B13B10448AFF345
:10011C0000800123237010BD0C01002000000000A2
:10012C00DC4D000808B5034B1BB103490348AFF382
:10013C00008008BD0000000010010020DC4D00080C
:10014C0080B483B000AF7860094A7B6852F82330E2
:10015C00012B06D1064A7B68002142F823100123AB
:10016C0000E0002318460C37BD4680BC704700BF2A
:10017C002801002080B483B000AF7860044A7B680B
:10018C00012142F8231000BF0C37BD4680BC7047DC
:10019C002801002080B582B000AF00237B606DE0A9
:1001AC003A4A7B6852F8232039497B6841F823206E
:1001BC00384A7B6852F8232034497B6841F8232065
:1001CC00354A7B6852F8232034497B6831F8133068
:1001DC001946104601F0B8FF034619462D4A7B68B4
:1001EC0042F82310294A7B6852F8232029497B685E
:1001FC0051F823309A423ED1244A7B6852F823208E
:10020C0023497B6851F823309A4234D1204A7B68C9
:10021C0052F8232022497B6851F823309A4216D099
:10022C001B4A7B6852F823201D497B6841F8232028
:10023C001B4A7B6852F82330002B1CD1194A7B686F
:10024C00C82142F823107868FFF794FF13E0154A91
:10025C007B6852F823305A1E12497B6841F82320E0
:10026C00104A7B6852F82330002B04D10C4A7B686F
:10027C00012142F823107B6801337B607B68032BE0
:10028C008EDD00BF00BF0837BD4680BD28000020B2
:10029C00380000201800002008000020000000207A
:1002AC00480000205800002080B500AF0020FFF768
:1002BC0047FF0346012B13D100F05CFD094B0522CF
:1002CC001A7000F075FD00F0CFFD0749074804F0E7
:1002DC00FBF903469AB2C8230449054803F028FBEE
:1002EC0000BF80BD38010020F44D00088C020020B6
:1002FC004002002080B500AF0020FFF721FF03462D
:10030C00012B1AD100F036FD0D4B07221A7000F0AC
:10031C004FFD00F089FD0B4B1A680B4B1B6892FBD1
:10032C00F3F31A4609490A4804F0CEF903469AB287
:10033C00C8230749074803F0FBFA00BF80BD00BF84
:10034C003801002068000020AC5000081C4E00084A
:10035C008C0200204002002080B500AF7B4B1B7844
:10036C00042B00F2D88101A252F823F08D0300086F
:10037C00CD0300087F040008910500084906000819
:10038C0000F0F8FC724B1A68724B1B6892FBF3F38B
:10039C00714A1360714B1A686E4B1B6892FBF3F336
:1003AC006F4A1360694B01221A706C4B1B6819461B
:1003BC00002001F049F96421012001F045F9ABE17D
:1003CC0000F0F6FC00F050FD664B5B68002B37D05C
:1003DC006421012001F038F900F0B4FC5E4B1B687D
:1003EC00013B5D4A13605C4B1B681A465E495F48D3
:1003FC0004F06AF903469AB2C8235C495C4803F0DE
:10040C0097FA574B1B68013B554A1360544B1B68BA
:10041C001A465849554804F057F903469AB2C8236E
:10042C005249534803F084FA4D4B1B68002B07DCF0
:10043C00514B1A68474B1B6892FBF3F3484A136005
:10044C00484B1B68002B08D0404B02221A704A4BB9
:10045C001B681946002001F0F7F80320FFF770FE27
:10046C000346002B02D0454B01221A60FFF71CFFFC
:10047C0052E100F09DFC00F0E7FC3A4B5B68002B6E
:10048C004BD06421012001F0DFF800F05BFC324B13
:10049C001B68013B304A13602F4B1B68002B07DC99
:1004AC002E4B1A682B4B1B6892FBF3F32A4A1360F2
:1004BC00294B1B681A462C492C4804F005F90346B5
:1004CC009AB2C82329492A4803F032FA244B1B68F4
:1004DC00013B234A1360224B1B681A4628492348C8
:1004EC0004F0F2F803469AB2C8232049204803F0DE
:1004FC001FFA1B4B1B68002B0FDC184B1A68154B93
:10050C001B6892FBF3F3144A1360114B1A68114BDE
:10051C001B6892FBF3F3124A1360124B1B68002BFF
:10052C0008D00A4B03221A700C4B1B68194600208A
:10053C0001F08AF80320FFF703FE0346002B02D0DC
:10054C000E4B01221A60FFF7AFFEE5E038010020E8
:10055C0068000020AC5000083C0100206C0000201A
:10056C004001002050010020344E00088C02002075
:10057C00400200204C4E0008700000204801002072
:10058C00684E000800F03CFC00F04EFC634B5B68CE
:10059C00002B37D06421012001F056F800F0D2FB7B
:1005AC005F4B1B68013B5E4A13605D4B1B681A4630
:1005BC005C495D4804F088F803469AB2C8235A494E
:1005CC005A4803F0B5F95A4B1B68013B584A136063
:1005DC00574B1B681A465749534804F075F80346A5
:1005EC009AB2C8235049514803F0A2F94C4B1B68EE
:1005FC00002B07DC504B1A68504B1B6892FBF3F333
:10060C00474A1360454B1B68002B0BD04C4B3222D6
:10061C001A604C4B04221A70474B1B681946002079
:10062C0001F012F80320FFF78BFD0346002B02D0DC
:10063C00454B01221A60FFF737FE6DE000F0CCFB52
:10064C0000F0F2FB354B5B68002B4BD06421012092
:10065C0000F0FAFF00F076FB314B1B68013B304A8F
:10066C0013602F4B1B681A4638492F4804F02CF89E
:10067C0003469AB2C8232C492C4803F059F9284B4D
:10068C001B68002B07DC324B1A682C4B1B6892FB47
:10069C00F3F3234A1360264B1B68013B244A136077
:1006AC00234B1B681A4623491F4804F00DF80346D8
:1006BC009AB2C8231C491D4803F03AF91C4B1B681D
:1006CC00002B0FDC224B1A681C4B1B6892FBF3F3BC
:1006DC00134A13601F4B1A68184B1B6892FBF3F3F9
:1006EC00134A13600D4B1B68002B08D0154B0122CD
:1006FC001A70184B1B681946002000F0A5FF032048
:10070C00FFF71EFD0346002B02D00F4B01221A608F
:10071C00FFF7CAFD00E000BF00BF80BD5001002004
:10072C003C010020844E00088C0200204002002076
:10073C0040010020A04E000870000020AC500008C2
:10074C00880000203801002048010020B84E000825
:10075C00680000206C00002080B500AF1F4B1B7898
:10076C00052B02D0062B1BD035E00120FFF7E8FC4F
:10077C000346002B11D0194B06221A7000F054FBC3
:10078C0000F03EFB1649174803F09EFF03469AB251
:10079C00C8231449144803F0CBF8FFF7ABFD1AE05B
:1007AC000120FFF7CDFC0346002B11D00B4B05228B
:1007BC001A7000F0FDFA00F057FB0C49094803F0E1
:1007CC0083FF03469AB2C8230649074803F0B0F8E2
:1007DC00FFF790FD00BF00BF80BD00BF38010020B7
:1007EC00D44E00088C02002040020020F44D00087A
:1007FC0080B500AF1F4B1B78012B03D01D4B1B7812
:10080C00022B06D100F040FB1B4B1B6800225A63E5
:10081C002DE0184B1B78032B03D0164B1B78042BA5
:10082C0025D100F045FB154B1B68032B1FDC144B2B
:10083C00DB68012B0ED1114B1B68013B114A52F89E
:10084C002330184600F06CF80F4B1B681946032038
:10085C0000F0FAFE0A4B5B6A002B08D00A4B1B68AF
:10086C00013B094A13600F21092000F0EDFE00BF87
:10087C0080BD00BF38010020AC01002040010020E9
:10088C00500100208C000020F401002080B500AF46
:10089C001F4B1B680C2B06D00C2B31DC0A2B0ED0FB
:1008AC000B2B20D02CE000F017FB00F05DF8194B5F
:1008BC001B68002B26D0164B0A221A6022E04FF43C
:1008CC007A71022000F0C0FE134B14221A60022130
:1008DC00092000F0B9FE0221032000F0B5FE0C4BFC
:1008EC000B221A6011E0FFF783FF0C4B9B68002B67
:1008FC000AD0074B0C221A60064B00221A6003E048
:10090C0000BF02E000BF00E000BF00BF80BD00BF21
:10091C008000002048010020F4010020500100203C
:10092C0080B483B000AF78600D4B1B68012B04D1F1
:10093C000C4B1B687A685A6307E0094B1B68002B49
:10094C0003D1084B1B6800225A63054B1B68C3F18B
:10095C000103034A136000BF0C37BD4680BC7047CF
:10096C0084000020AC01002080B400AF034B1B6856
:10097C0000225A6300BFBD4680BC7047AC0100200A
:10098C0080B500AF0020FFF7DBFB0346012B0FD136
:10099C0000F0F0F9074B1A68074B1B68D31A074A8B
:1009AC001360074B01221A700221042000F04CFE48
:1009BC0000BF80BD680000206C000020700000208B
:1009CC003801002080B500AF8B4B1B78092B00F051
:1009DC00FE80092B00F39B81072B02D0082B7BD0C8
:1009EC0095E1864B1B69012B14D11921042000F0D1
:1009FC002BFE834B1B68002B07D100F0D9F900F0BC
:100A0C0013FA7F4B01221A6004E000F0B3F97C4B1F
:100A1C0000221A600120FFF793FB0346002B18D02D
:100A2C00754B08221A701921042000F00DFE754B2D
:100A3C001A68754B1B6892FBF3F31A46734974489A
:100A4C0003F042FE03469AB2C8237149714802F082
:100A5C006FFF0220FFF774FB0346012B1DD16E4B79
:100A6C001B6801336C4A13606B4B1B681A466B494D
:100A7C00674803F029FE03469AB2C82364496548C7
:100A8C0002F056FF644B1B68092B02DD624B0522FA
:100A9C001A60614B1B68624A13600320FFF750FB1E
:100AAC000346002B15D05C4B1B68574A126802FB9F
:100ABC0003F35C4A1360584B1B681A465A49544856
:100ACC0003F002FE03469AB2C8235149514802F082
:100ADC002FFFFFF755FF1AE1484B1B69012B14D16F
:100AEC001921042000F0B0FD454B1B68002B07D1E9
:100AFC0000F072F900F0A8F9414B01221A6004E0F1
:100B0C0000F038F93E4B00221A600120FFF718FB69
:100B1C000346002B18D0384B09221A7019210420D7
:100B2C0000F092FD414B1A68374B1B6892FBF3F3B4
:100B3C001A463F49364803F0C7FD03469AB2C8230C
:100B4C003349344802F0F4FE0220FFF7F9FA034669
:100B5C00012B1DD1374B1B680133364A1360354BC3
:100B6C001B681A4634492A4803F0AEFD03469AB274
:100B7C00C8232749274802F0DBFE2E4B1B68092BA4
:100B8C0002DD2C4B02221A602A4B1B68244A13608C
:100B9C000320FFF7D5FA0346002B15D0254B1B6815
:100BAC00194A126802FB03F3164A1360214B1B68A7
:100BBC001A462249164803F087FD03469AB2C82309
:100BCC001349144802F0B4FEFFF7DAFE9FE00B4B1A
:100BDC001B69012B39D11921042000F035FD084B7C
:100BEC001B68002B2CD100F00BF900F03DF9044BE5
:100BFC0001221A6029E000BF3801002050010020BA
:100C0C004401002070000020AC500008FC4E00088D
:100C1C008C0200204002002074000020184F0008B5
:100C2C003C010020680000203C4F00086C000020B4
:100C3C005C4F00087C000020784F0008A04F000893
:100C4C0000F098F8334B00221A600120FFF778FA75
:100C5C000346002B18D0304B07221A7019210420A0
:100C6C0000F0F2FC2D4B1A682D4B1B6892FBF3F332
:100C7C001A462C492C4803F027FD03469AB2C82388
:100C8C0029492A4802F054FE0220FFF759FA03467C
:100C9C00012B1DD1264B1B680133254A1360244BB5
:100CAC001B681A462349204803F00EFD03469AB2EE
:100CBC00C8231D491D4802F03BFE1D4B1B68092B28
:100CCC0002DD1B4B03221A60194B1B681A4A136076
:100CDC000320FFF735FA0346002B15D0144B1B6885
:100CEC000F4A126802FB03F3144A1360104B1B6883
:100CFC001A4613490C4803F0E7FC03469AB2C82382
:100D0C0009490A4802F014FEFFF73AFE00BF00BF83
:100D1C0080BD00BF44010020380100206800002085
:100D2C00AC500008C44F00088C0200204002002088
:100D3C0078000020DC4F00083C0100206C000020F3
:100D4C000450000880B500AF4FF0FF330422064971
:100D5C00064802F0EDFD4FF0FF330322044903482F
:100D6C0002F0E6FD00BF80BD2850000840020020C4
:100D7C003050000880B500AF00224FF480610A4863
:100D8C0001F0F9F900220821084801F0F4F90022D9
:100D9C002021064801F0EFF900221021034801F050
:100DAC00EAF900BF80BD00BF00080140000C014003
:100DBC0080B500AF01224FF48061054801F0DBF9EA
:100DCC0000220821034801F0D6F900BF80BD00BF06
:100DDC0000080140000C014080B500AF01224FF427
:100DEC008061054801F0C7F901220821034801F090
:100DFC00C2F900BF80BD00BF00080140000C0140DB
:100E0C0080B500AF00224FF48061054801F0B3F9C2
:100E1C0001220821034801F0AEF900BF80BD00BFDC
:100E2C0000080140000C014080B500AF01222021D8
:100E3C00044801F0A0F900221021024801F09BF9AE
:100E4C0000BF80BD000C014080B500AF0122202105
:100E5C00044801F090F901221021024801F08BF9AD
:100E6C0000BF80BD000C014080B500AF00222021E6
:100E7C00044801F080F901221021024801F07BF9AD
:100E8C0000BF80BD000C014080B500AF01224FF4C3
:100E9C008061054801F06FF900224FF4807103481E
:100EAC0001F069F900BF80BD000C01400008014051
:100EBC0080B500AF00224FF48061054801F05BF96A
:100ECC0001224FF48071034801F055F900BF80BD39
:100EDC00000C01400008014080B500AF00224FF427
:100EEC008061054801F047F900224FF480710348F6
:100EFC0001F041F900BF80BD000C01400008014029
:100F0C0080B500AF00F07AFD00F044F800F070F905
:100F1C0000F082F800F0CCF800F040F9154801F030
:100F2C00A1FD0021144801F047FE1721002000F01C
:100F3C008BFB0A220021114800F034FA0A2200210E
:100F4C000F4800F02FFA142200210E4800F02AFA64
:100F5C00142200210C4800F025FA0A2200210B482B
:100F6C0000F020FA0A220021094800F01BFA00F0D8
:100F7C00E9FAFCE7F8010020AC0100206503000849
:100F8C009908000865070008D1090008D516000863
:100F9C00A101000880B590B000AF07F1180328221A
:100FAC000021184603F0D2FA3B1D00221A605A6049
:100FBC009A60DA601A610223BB610123BB621023C1
:100FCC00FB6202237B630023BB634FF46013FB6360
:100FDC0007F11803184601F0E7F80346002B01D07F
:100FEC0000F07EF90F237B600223BB600023FB60C3
:100FFC004FF480633B6100237B613B1D022118464B
:10100C0001F052FB0346002B01D000F069F900BF40
:10101C004037BD4680BD000080B586B000AF07F1FB
:10102C00080300221A605A609A60DA603B4600227C
:10103C001A605A601D4B4FF080421A601B4B41F6F0
:10104C003F725A60194B00229A60184B4F22DA609B
:10105C00164B00221A61154B00229A61134801F0BD
:10106C00B1FC0346002B01D000F03AF94FF4805349
:10107C00BB6007F1080319460C4802F009F8034657
:10108C00002B01D000F02CF900233B6000237B6087
:10109C003B461946054802F08BFB0346002B01D05A
:1010AC0000F01EF900BF1837BD4680BDF8010020C6
:1010BC0080B58EB000AF07F1280300221A605A6089
:1010CC009A60DA6007F1200300221A605A603B1D17
:1010DC0000221A605A609A60DA601A615A619A6149
:1010EC002C4B2D4A1A602B4B4F225A60294B002255
:1010FC009A60284B4F22DA60264B00221A61254B4E
:10110C0000229A61234801F05DFC0346002B01D0BC
:10111C0000F0E6F84FF48053BB6207F12803194640
:10112C001C4801F0B5FF0346002B01D000F0D8F8A5
:10113C00184801F0E9FC0346002B01D000F0D0F870
:10114C0000233B6200237B6207F120031946114800
:10115C0002F02EFB0346002B01D000F0C1F86023F7
:10116C007B600023BB600023FB6000237B613B1D85
:10117C0000221946074801F0C9FE0346002B01D096
:10118C0000F0AEF8034800F01FFB00BF3837BD4637
:10119C0080BD00BFAC0100200004004080B500AF52
:1011AC00114B124A1A60104B4FF4E1325A600E4B3D
:1011BC0000229A600C4B0022DA600B4B00221A6161
:1011CC00094B0C225A61084B00229A61064B0022F3
:1011DC00DA61054802F05CFB0346002B01D000F0FD
:1011EC007FF800BF80BD00BF4002002000440040DB
:1011FC0080B586B000AF07F1080300221A605A6070
:10120C009A60DA602E4B9B692D4A43F0040393617C
:10121C002B4B9B6903F004037B607B68284B9B6919
:10122C00274A43F008039361254B9B6903F008039D
:10123C003B603B6800224FF48761224800F09BFF23
:10124C0000224FF4A061204800F095FF1323BB60EF
:10125C000023FB6001233B6107F1080319461A4880
:10126C0000F0EEFD0123BB600023FB6001233B611A
:10127C0007F108031946134800F0E2FD4FF48763A9
:10128C00BB600123FB6000233B6102237B6107F100
:10129C00080319460B4800F0D3FD4FF4A063BB6064
:1012AC000123FB6000233B6102237B6107F10803F0
:1012BC001946054800F0C4FD00BF1837BD4680BD77
:1012CC0000100240000C01400008014080B582B0C3
:1012DC0000AF786000F00AF900BF0837BD4680BD4A
:1012EC0080B400AF72B600BFFEE7000080B485B0DA
:1012FC0000AF78602A4B1B687A689A424BD0284B17
:10130C001B68FB600023FB7214E0254B1B68FA681A
:10131C009A4202D1FB7A0133FB72FB7A022B10D07A
:10132C007B68DA68FB68DB68D21A7B68DA60FB687A
:10133C005B68FB60FB68DA687B68DB689A42E4D91F
:10134C0000E000BF7B68DB68002B02D17B680122C8
:10135C001A767B68FA685A60FB681A687B681A60B0
:10136C00FB681B687A685A60FB687A681A600C4BD9
:10137C001B68FA689A420FD0FB68DA687B68DB68F6
:10138C00D21AFB68DA60FB68DB68002B04D1FB68BF
:10139C0001221A7600E000BF1437BD4680BC7047AE
:1013AC004C01002080B586B000AFF860B9607A605F
:1013BC00FB68002B0DD14349434803F085F90346E4
:1013CC009AB2C8234049414802F0B2FA4FF0FF33B9
:1013DC0074E000237B6102E07B6901337B617B69F4
:1013EC00272B05D83A4A7B6913441B78002BF3D181
:1013FC007B69282B0DD13749334803F065F9034637
:10140C009AB2C8233049314802F092FA4FF0FF33B8
:10141C0054E02F4A7B69134401221A702E4B01228F
:10142C001A701C2003F082F803463B61BB682B4A00
:10143C00A2FB0323DA083B69DA607B68274AA2FB2C
:10144C000323DA083B691A613B69FA689A603B69C5
:10145C007A695A613B6900221A76214B1B68002B72
:10146C0011D03B695B691A461E49174803F02CF9E9
:10147C0003469AB2C8231449144802F059FA386941
:10148C00FFF734FF16E03B695B691A4616490E48B4
:10149C0003F01AF903469AB2C8230B490B4802F021
:1014AC0047FA3B693A691A603B693A695A600C4AD7
:1014BC003B691360084B00221A707B691846183779
:1014CC00BD4680BD345000088C0200204002002034
:1014DC00F00200205C50000888020020CDCCCCCC5F
:1014EC004C010020785000089050000880B400AFE8
:1014FC00124B1B68002B1DD0104B1B681B7E002B46
:10150C0018D10F4B1B78002B14D10C4B1B68DB68CC
:10151C00002B06D0094B1B68DA68084B1B68013A94
:10152C00DA60064B1B68DB68002B03D1034B1B688E
:10153C0001221A7600BFBD4680BC70474C010020CA
:10154C008802002080B582B000AF254B01221A70B2
:10155C0036E0244B1B689B689847224B1B681B6921
:10156C00002B0DD11F4B1B683B601E4B1B685B682F
:10157C001C4A13603B685B69184600F035F81FE0A5
:10158C00184B1B687B60174B1A68164B1B685B6803
:10159C0012681A60134B1A68124B1B681B6852684E
:1015AC005A60104B1B685B680E4A13607B68002204
:1015BC001A767B681A697B68DA607868FFF796FEA2
:1015CC00084B1B68002B04D0064B1B681B7E002BA2
:1015DC00BFD1034B00221A7000BF0837BD4680BD37
:1015EC00880200204C01002080B584B000AF7860E8
:1015FC00134A7B6813441B78002B1DD0104A7B6860
:10160C00134400221A700F4B1B68FB6002E0FB684E
:10161C005B68FB60FB685B697A689A42F7D1FB6890
:10162C005B68FA6812681A60FB681B68FA68526893
:10163C005A60F86802F082FF00BF1037BD4680BDCB
:10164C00F00200204C01002080B483B000AF786021
:10165C003960074A7B68002142F8231005497B68F2
:10166C003A6841F8232000BF0C37BD4680BC704758
:10167C00500100207801002080B483B000AF786066
:10168C000F4A7B6852F82330002B13DD0C4A7B6821
:10169C0052F823305A1E0A497B6841F82320084A25
:1016AC007B6852F82330002B04DC064A7B6801214E
:1016BC0042F8231000BF0C37BD4680BC704700BFFA
:1016CC00780100205001002080B500AF0020FFF70A
:1016DC00D3FF0120FFF7D0FF0220FFF7CDFF03203F
:1016EC00FFF7CAFF0420FFF7C7FF0920FFF7C4FF6D
:1016FC0000BF80BD80B485B000AF154B9B69144A08
:10170C0043F001039361124B9B6903F00103BB602F
:10171C00BB680F4BDB690E4A43F08053D3610C4B13
:10172C00DB6903F080537B607B680A4B5B68FB6072
:10173C00FB6823F0E063FB60FB6843F00073FB6025
:10174C00044AFB68536000BF1437BD4680BC704729
:10175C00001002400000014080B584B000AF7860FA
:10176C007B681B68B3F1804F14D1154BDB69144AAD
:10177C0043F00103D361124BDB6903F00103FB60FF
:10178C00FB68002200211C2000F071FA1C2000F0E4
:10179C008AFA10E07B681B680A4A93420BD1084B0B
:1017AC00DB69074A43F00203D361054BDB6903F0A5
:1017BC000203BB60BB6800BF1037BD4680BD00BFD5
:1017CC00001002400004004080B588B000AF786083
:1017DC0007F1100300221A605A609A60DA607B6885
:1017EC001B680F4A934217D10E4B9B690D4A43F06D
:1017FC00040393610B4B9B6903F00403FB60FB68D0
:10180C0040233B6102237B610223FB6107F1100340
:10181C001946054800F014FB00BF2037BD4680BDBB
:10182C0000040040001002400008014080B588B060
:10183C0000AF786007F1100300221A605A609A60BA
:10184C00DA607B681B681B4A93422FD11A4BDB6909
:10185C00194A43F40033D361174BDB6903F40033AB
:10186C00FB60FB68144B9B69134A43F004039361C0
:10187C00114B9B6903F00403BB60BB6804233B6101
:10188C0002237B610323FB6107F1100319460B480C
:10189C0000F0D6FA08233B6100237B610023BB6177
:1018AC0007F110031946054800F0CAFA00BF2037AB
:1018BC00BD4680BD004400400010024000080140BD
:1018CC0080B400AFFEE780B400AFFEE780B400AF99
:1018DC00FEE780B400AFFEE780B400AFFEE780B453
:1018EC0000AF00BFBD4680BC704780B400AF00BFE6
:1018FC00BD4680BC704780B400AF00BFBD4680BC05
:10190C00704780B500AF00F0BFF800BF80BD00008D
:10191C0080B500AF024801F0F1F900BF80BD00BFF7
:10192C00F801002080B500AF024802F085F800BF36
:10193C0080BD00BF4002002080B586B000AF78604B
:10194C00144A154BD31A7B617B693B61134B1B68A3
:10195C00002B02D1114B124A1A60104B1A687B688B
:10196C0013443A699A4207D202F0B6FD03460C22A0
:10197C001A604FF0FF3309E0084B1B68FB60074B04
:10198C001A687B681344054A1360FB6818461837BD
:10199C00BD4680BD0050002000040000A0010020C6
:1019AC003003002080B400AF00BFBD4680BC704740
:1019BC00FFF7F8FF0B480C490C4A002302E0D458FF
:1019CC00C4500433C4188C42F9D3094A094C00237F
:1019DC0001E013600432A242FBD302F083FDFFF757
:1019EC008FFA7047000000200C01002018510008ED
:1019FC000C0100202C030020FEE7000080B500AF96
:101A0C00084B1B68074A43F010031360032000F0D7
:101A1C0023F90F2000F008F8FFF76CFE002318469E
:101A2C0080BD00BF0020024080B582B000AF78605E
:101A3C00124B1A68124B1B7819464FF47A73B3FB8E
:101A4C00F1F3B2FBF3F3184600F03BF90346002B1D
:101A5C0001D001230EE07B680F2B0AD80022796895
:101A6C004FF0FF3000F003F9064A7B681360002347
:101A7C0000E0012318460837BD4680BD9C000020BD
:101A8C00A4000020A000002080B400AF054B1B7800
:101A9C001A46054B1B681344034A136000BFBD462E
:101AAC0080BC7047A40000201803002080B400AF55
:101ABC00024B1B681846BD4680BC704718030020BB
:101ACC0080B485B000AF78607B6803F00703FB60DF
:101ADC000C4BDB68BB60BA684FF6FF031340BB606E
:101AEC00FB681A02BB68134343F0BF6343F4003333
:101AFC00BB60044ABB68D36000BF1437BD4680BCD2
:101B0C00704700BF00ED00E080B400AF044BDB6811
:101B1C001B0A03F007031846BD4680BC704700BF84
:101B2C0000ED00E080B483B000AF0346FB7197F981
:101B3C000730002B0BDBFB7903F01F02064997F9EA
:101B4C0007305B09012000FA02F241F8232000BFA4
:101B5C000C37BD4680BC704700E100E080B483B018
:101B6C0000AF03463960FB7197F90730002B0ADB95
:101B7C003B68DAB20C4997F907301201D2B20B4428
:101B8C0083F800230AE03B68DAB20849FB7903F0DA
:101B9C000F03043B1201D2B20B441A7600BF0C3770
:101BAC00BD4680BC704700BF00E100E000ED00E0E6
:101BBC0080B489B000AFF860B9607A60FB6803F05C
:101BCC000703FB61FB69C3F10703042B28BF042344
:101BDC00BB61FB690433062B02D9FB69033B00E0B4
:101BEC0000237B614FF0FF32BB6902FA03F3DA4347
:101BFC00BB681A407B699A404FF0FF317B6901FA50
:101C0C0003F3D9437B680B40134318462437BD4676
:101C1C0080BC704780B582B000AF78607B68013BB8
:101C2C00B3F1807F01D301230FE00A4A7B68013BAB
:101C3C0053600F214FF0FF30FFF790FF054B002250
:101C4C009A60044B07221A60002318460837BD46D9
:101C5C0080BD00BF10E000E080B582B000AF7860BE
:101C6C007868FFF72DFF00BF0837BD4680BD80B5F3
:101C7C0086B000AF0346B9607A60FB7300237B61CA
:101C8C00FFF742FF78617A68B9687869FFF790FFCF
:101C9C00024697F90F3011461846FFF75FFF00BF59
:101CAC001837BD4680BD80B582B000AF0346FB71CE
:101CBC0097F907301846FFF735FF00BF0837BD46C8
:101CCC0080BD80B582B000AF78607868FFF7A2FF66
:101CDC00034618460837BD4680BD80B485B000AFBA
:101CEC0078600023FB737B6893F82130DBB2022B06
:101CFC0008D07B6804229A637B68002283F820203A
:101D0C00012320E07B681B681A687B681B6822F043
:101D1C000E021A607B681B681A687B681B6822F0CD
:101D2C0001021A607B681A6C7B68DB6B012101FA7B
:101D3C0002F25A607B68012283F821207B68002222
:101D4C0083F82020FB7B18461437BD4680BC7047B7
:101D5C0080B584B000AF78600023FB737B6893F888
:101D6C002130DBB2022B05D07B6804229A6301235D
:101D7C00FB7351E07B681B681A687B681B6822F058
:101D8C000E021A607B681B681A687B681B6822F05D
:101D9C0001021A607B681B68224A934229D07B6837
:101DAC001B68214A934222D07B681B681F4A9342CE
:101DBC001AD07B681B681E4A934212D07B681B6842
:101DCC001C4A93420AD07B681B681B4A934202D17F
:101DDC004FF480130EE04FF080730BE04FF4803320
:101DEC0008E04FF4805305E04FF4807302E01023B9
:101DFC0000E00123114A53607B68012283F8212003
:101E0C007B68002283F820207B685B6B002B03D05F
:101E1C007B685B6B78689847FB7B18461037BD4630
:101E2C0080BD00BF080002401C0002403000024090
:101E3C0044000240580002406C0002400000024086
:101E4C0080B48BB000AF7860396000237B620023D4
:101E5C003B6269E101227B6A02FA03F3FB613B6896
:101E6C001B68FA691340BB61BA69FB699A4240F07E
:101E7C0058813B685B689A4A93425ED0984A934279
:101E8C0075D8984A934258D0964A93426FD8964A3E
:101E9C00934252D0944A934269D8944A93424CD07C
:101EAC00924A934263D8924A934246D0904A9342C4
:101EBC005DD8122B2AD8122B59D801A252F823F034
:101ECC00471F0008211F0008331F0008751F00085A
:101EDC007B1F00087B1F00087B1F00087B1F00086E
:101EEC007B1F00087B1F00087B1F00087B1F00085E
:101EFC007B1F00087B1F00087B1F00087B1F00084E
:101F0C007B1F0008291F00083D1F0008794A9342D7
:101F1C0013D02CE03B68DB683B6229E03B68DB6854
:101F2C0004333B6224E03B68DB6808333B621FE010
:101F3C003B68DB680C333B621AE03B689B68002B08
:101F4C0002D104233B6213E03B689B68012B05D153
:101F5C0008233B627B68FA691A6109E008233B623B
:101F6C007B68FA695A6103E000233B6200E000BF22
:101F7C00BB69FF2B01D87B6801E07B6804337B6174
:101F8C00BB69FF2B02D87B6A9B0002E07B6A083B93
:101F9C009B003B617B691A680F213B6901FA03F3D3
:101FAC00DB431A40396A3B6901FA03F31A437B6934
:101FBC001A603B685B6803F08053002B00F0B18023
:101FCC004D4B9B694C4A43F0010393614A4B9B690F
:101FDC0003F00103BB60BB68484A7B6A9B08023371
:101FEC0052F82330FB607B6A03F003039B000F2243
:101FFC0002FA03F3DB43FA681340FB607B68404A48
:10200C00934213D07B683F4A93420DD07B683E4A83
:10201C00934207D07B683D4A934201D1032306E0EB
:10202C00042304E0022302E0012300E000237A6A87
:10203C0002F0030292009340FA681343FB602F49AD
:10204C007B6A9B080233FA6841F823203B685B6883
:10205C0003F48013002B06D02D4B9A682C49BB69D6
:10206C0013438B6006E02A4B9A68BB69DB43284913
:10207C0013408B603B685B6803F40013002B06D0A5
:10208C00234BDA682249BB691343CB6006E0204B33
:10209C00DA68BB69DB431E491340CB603B685B6865
:1020AC0003F40033002B06D0194B5A681849BB694E
:1020BC0013434B6006E0164B5A68BB69DB4314496B
:1020CC0013404B603B685B6803F48033002B21D0DA
:1020DC000F4B1A680E49BB6913430B6021E000BF1C
:1020EC0000003210000031100000221000002110FE
:1020FC0000001210000011100010024000000140FE
:10210C0000080140000C0140001001400014014087
:10211C00000401400B4B1A68BB69DB4309491340AF
:10212C000B607B6A01337B623B681A687B6A22FA1C
:10213C0003F3002B7FF48EAE00BF00BF2C37BD46DF
:10214C0080BC70470004014080B485B000AF78605B
:10215C000B467B807B689A687B881340002B02D0EF
:10216C000123FB7301E00023FB73FB7B1846143740
:10217C00BD4680BC704780B483B000AF78600B461E
:10218C007B8013467B707B78002B03D07A887B682E
:10219C001A6103E07B881A047B681A6100BF0C3754
:1021AC00BD4680BC7047000080B586B000AF78603B
:1021BC007B68002B01D101236CE27B681B6803F068
:1021CC000103002B00F08780924B5B6803F00C033B
:1021DC00042B0CD08F4B5B6803F00C03082B12D133
:1021EC008C4B5B6803F48033B3F5803F0BD1894B88
:1021FC001B6803F40033002B6CD07B685B68002BEE
:10220C0068D1012346E27B685B68B3F5803F06D159
:10221C00804B1B687F4A43F4803313602EE07B684D
:10222C005B68002B0CD17B4B1B687A4A23F4803300
:10223C001360784B1B68774A23F4802313601DE0EE
:10224C007B685B68B3F5A02F0CD1724B1B68714A8D
:10225C0043F4802313606F4B1B686E4A43F4803346
:10226C0013600BE06B4B1B686A4A23F480331360DA
:10227C00684B1B68674A23F4802313607B685B6898
:10228C00002B13D0FFF712FC386108E0FFF70EFCAF
:10229C0002463B69D31A642B01D90323FAE15D4B47
:1022AC001B6803F40033002BF0D014E0FFF7FEFBA7
:1022BC00386108E0FFF7FAFB02463B69D31A642B3E
:1022CC0001D90323E6E1534B1B6803F40033002BC5
:1022DC00F0D100E000BF7B681B6803F00203002B09
:1022EC0063D04C4B5B6803F00C03002B0BD0494BB9
:1022FC005B6803F00C03082B1CD1464B5B6803F4A2
:10230C008033002B16D1434B1B6803F00203002BC8
:10231C0005D07B681B69012B01D00123BAE13D4B31
:10232C001B6823F0F8027B685B69DB0039491343B7
:10233C000B603AE07B681B69002B20D0364B0122E6
:10234C001A60FFF7B3FB386108E0FFF7AFFB0246FA
:10235C003B69D31A022B01D903239BE12D4B1B683C
:10236C0003F00203002BF0D02A4B1B6823F0F80279
:10237C007B685B69DB00274913430B6015E0264B38
:10238C0000221A60FFF792FB386108E0FFF78EFB22
:10239C0002463B69D31A022B01D903237AE11D4B68
:1023AC001B6803F00203002BF0D17B681B6803F061
:1023BC000803002B3AD07B689B69002B19D0174B74
:1023CC0001221A60FFF772FB386108E0FFF76EFB21
:1023DC0002463B69D31A022B01D903235AE10D4B58
:1023EC005B6A03F00203002BF0D0012000F0CCFA62
:1023FC001CE00A4B00221A60FFF758FB38610FE013
:10240C00FFF754FB02463B69D31A022B08D903236E
:10241C0040E100BF001002400000424280044242F2
:10242C009E4B5B6A03F00203002BE9D17B681B68AF
:10243C0003F00403002B00F0A6800023FB75974BE0
:10244C00DB6903F08053002B0DD1944BDB69934A6D
:10245C0043F08053D361914BDB6903F08053BB6035
:10246C00BB680123FB758E4B1B6803F48073002B38
:10247C0018D18B4B1B688A4A43F480731360FFF7A7
:10248C0015FB386108E0FFF711FB02463B69D31AD4
:10249C00642B01D90323FDE0814B1B6803F480738B
:1024AC00002BF0D07B68DB68012B06D17B4B1B6AC1
:1024BC007A4A43F0010313622DE07B68DB68002B42
:1024CC000CD1764B1B6A754A23F001031362734BD4
:1024DC001B6A724A23F0040313621CE07B68DB68FE
:1024EC00052B0CD16D4B1B6A6C4A43F00403136231
:1024FC006A4B1B6A694A43F0010313620BE0674B9A
:10250C001B6A664A23F001031362644B1B6A634A1D
:10251C0023F0040313627B68DB68002B15D0FFF7F4
:10252C00C5FA38610AE0FFF7C1FA02463B69D31AD3
:10253C0041F28832934201D90323ABE0574B1B6A1B
:10254C0003F00203002BEED014E0FFF7AFFA386172
:10255C000AE0FFF7ABFA02463B69D31A41F2883224
:10256C00934201D9032395E04C4B1B6A03F0020301
:10257C00002BEED1FB7D012B05D1484BDB69474A83
:10258C0023F08053D3617B68DB69002B00F08180E2
:10259C00424B5B6803F00C03082B61D07B68DB6952
:1025AC00022B46D13F4B00221A60FFF77FFA3861AD
:1025BC0008E0FFF77BFA02463B69D31A022B01D9DC
:1025CC00032367E0354B1B6803F00073002BF0D13D
:1025DC007B681B6AB3F5803F08D1304B5B6823F4F2
:1025EC0000327B689B682D4913434B602B4B5B6817
:1025FC0023F474127B68196A7B685B6A0B43274966
:10260C0013434B60274B01221A60FFF74FFA3861D6
:10261C0008E0FFF74BFA02463B69D31A022B01D9AB
:10262C00032337E01D4B1B6803F00073002BF0D025
:10263C002FE01C4B00221A60FFF738FA386108E0D3
:10264C00FFF734FA02463B69D31A022B01D9032354
:10265C0020E0124B1B6803F00073002BF0D118E044
:10266C007B68DB69012B01D1012313E00B4B5B6809
:10267C00FB60FB6803F480327B681B6A9A4206D1CC
:10268C00FB6803F470127B685B6A9A4201D00123E9
:10269C0000E0002318461837BD4680BD00100240EC
:1026AC00007000406000424280B584B000AF78609A
:1026BC0039607B68002B01D10123D0E06A4B1B6889
:1026CC0003F007033A689A4210D9674B1B6823F052
:1026DC00070265493B6813430B60634B1B6803F0AF
:1026EC0007033A689A4201D00123B8E07B681B6863
:1026FC0003F00203002B20D07B681B6803F004035B
:10270C00002B05D0594B5B68584A43F4E063536087
:10271C007B681B6803F00803002B05D0534B5B68E8
:10272C00524A43F460535360504B5B6823F0F00201
:10273C007B689B684D4913434B607B681B6803F0B7
:10274C000103002B40D07B685B68012B07D1474B02
:10275C001B6803F40033002B15D101237FE07B6849
:10276C005B68022B07D1414B1B6803F00073002BF5
:10277C0009D1012373E03D4B1B6803F00203002BCE
:10278C0001D101236BE0394B5B6823F003027B68BA
:10279C005B68364913434B60FFF788F9F8600AE031
:1027AC00FFF784F90246FB68D31A41F28832934250
:1027BC0001D9032353E02D4B5B6803F00C027B68BB
:1027CC005B689B009A42EBD1274B1B6803F0070315
:1027DC003A689A4210D2244B1B6823F00702224914
:1027EC003B6813430B60204B1B6803F007033A68EC
:1027FC009A4201D0012332E07B681B6803F004038A
:10280C00002B08D0194B5B6823F4E0627B68DB6813
:10281C00164913434B607B681B6803F00803002BBD
:10282C0009D0124B5B6823F460527B681B69DB0098
:10283C000E4913434B6000F021F802460B4B5B68CA
:10284C001B0903F00F030A49CB5C22FA03F3094A74
:10285C001360094B1B681846FFF7E6F8002318466F
:10286C001037BD4680BD00BF002002400010024062
:10287C00B05000089C000020A000002080B487B05D
:10288C0000AF0023FB600023BB6000237B610023AF
:10289C007B6000233B611E4B5B68FB60FB6803F0B5
:1028AC000C03042B02D0082B03D027E0194B3B61FF
:1028BC0027E0FB689B0C03F00F03174AD35C7B608B
:1028CC00FB6803F48033002B10D0114B5B685B0C5E
:1028DC0003F00103114AD35CBB607B680D4A02FB19
:1028EC0003F2BB68B2FBF3F37B6104E07B680C4A38
:1028FC0002FB03F37B617B693B6102E0054B3B61AF
:10290C0000BF3B6918461C37BD4680BC704700BFF2
:10291C000010024000127A00C8500008D85000087D
:10292C0000093D0080B400AF024B1B681846BD4641
:10293C0080BC70479C00002080B500AFFFF7F2FF11
:10294C000246054B5B681B0A03F007030349CB5C8B
:10295C0022FA03F3184680BD00100240C050000854
:10296C0080B500AFFFF7DEFF0246054B5B68DB0A64
:10297C0003F007030349CB5C22FA03F3184680BD2E
:10298C0000100240C050000880B485B000AF7860E1
:10299C000A4B1B680A4AA2FB03235B0A7A6802FBF8
:1029AC0003F3FB6000BFFB685A1EFA60002BF9D1E1
:1029BC0000BF00BF1437BD4680BC70479C00002090
:1029CC00D34D621080B582B000AF78607B68002B6D
:1029DC0001D1012341E07B6893F83D30DBB2002B41
:1029EC0006D17B68002283F83C207868FEF7B4FEA1
:1029FC007B68022283F83D207B681A687B6804336D
:102A0C001946104600F030FC7B68012283F8462002
:102A1C007B68012283F83E207B68012283F83F20EB
:102A2C007B68012283F840207B68012283F84120D7
:102A3C007B68012283F842207B68012283F84320C3
:102A4C007B68012283F844207B68012283F84520AF
:102A5C007B68012283F83D20002318460837BD46C9
:102A6C0080BD000080B485B000AF78607B6893F8BF
:102A7C003D30DBB2012B01D001233AE07B6802220E
:102A8C0083F83D207B681B68DA687B681B6842F022
:102A9C000102DA607B681B68184A93420ED07B688F
:102AAC001B68B3F1804F09D07B681B68144A9342B2
:102ABC0004D07B681B68134A934211D17B681B6856
:102ACC009B6803F00703FB60FB68062B10D07B6848
:102ADC001B681A687B681B6842F001021A6007E0E9
:102AEC007B681B681A687B681B6842F001021A60DD
:102AFC00002318461437BD4680BC7047002C01409B
:102B0C00000400400008004080B582B000AF78603F
:102B1C007B68002B01D1012341E07B6893F83D30A9
:102B2C00DBB2002B06D17B68002283F83C2078684E
:102B3C0000F039F87B68022283F83D207B681A6824
:102B4C007B6804331946104600F08EFB7B6801222B
:102B5C0083F846207B68012283F83E207B680122A3
:102B6C0083F83F207B68012283F840207B68012298
:102B7C0083F841207B68012283F842207B68012284
:102B8C0083F843207B68012283F844207B68012270
:102B9C0083F845207B68012283F83D2000231846EA
:102BAC000837BD4680BD80B483B000AF786000BFED
:102BBC000C37BD4680BC704780B584B000AF7860E0
:102BCC0039603B68002B09D17B6893F83E30DBB24F
:102BDC00012B14BF01230023DBB222E03B68042B42
:102BEC0009D17B6893F83F30DBB2012B14BF012372
:102BFC000023DBB215E03B68082B09D17B6893F806
:102C0C004030DBB2012B14BF01230023DBB208E000
:102C1C007B6893F84130DBB2012B14BF01230023F6
:102C2C00DBB2002B01D001235EE03B68002B04D10A
:102C3C007B68022283F83E2013E03B68042B04D10E
:102C4C007B68022283F83F200BE03B68082B04D101
:102C5C007B68022283F8402003E07B68022283F821
:102C6C0041207B681B6801223968184600F07CFD06
:102C7C007B681B681E4A934207D17B681B685A6CA1
:102C8C007B681B6842F400425A647B681B68184AD4
:102C9C0093420ED07B681B68B3F1804F09D07B68E0
:102CAC001B68144A934204D07B681B68124A9342F7
:102CBC0011D17B681B689B6803F00703FB60FB6802
:102CCC00062B10D07B681B681A687B681B6842F067
:102CDC0001021A6007E07B681B681A687B681B6836
:102CEC0042F001021A60002318461037BD4680BD21
:102CFC00002C0140000400400008004080B582B068
:102D0C0000AF78607B681B681B6903F00203022B21
:102D1C0022D17B681B68DB6803F00203022B1BD1FA
:102D2C007B681B686FF002021A617B6801221A77BC
:102D3C007B681B689B6903F00303002B03D0786846
:102D4C0000F076FA05E0786800F069FA786800F02F
:102D5C0078FA7B6800221A777B681B681B6903F082
:102D6C000403042B22D17B681B68DB6803F004038B
:102D7C00042B1BD17B681B686FF004021A617B6803
:102D8C0002221A777B681B689B6903F44073002B43
:102D9C0003D0786800F04CFA05E0786800F03FFA50
:102DAC00786800F04EFA7B6800221A777B681B6803
:102DBC001B6903F00803082B22D17B681B68DB68B6
:102DCC0003F00803082B1BD17B681B686FF008020B
:102DDC001A617B6804221A777B681B68DB6903F035
:102DEC000303002B03D0786800F022FA05E0786822
:102DFC0000F015FA786800F024FA7B6800221A7744
:102E0C007B681B681B6903F01003102B22D17B68B5
:102E1C001B68DB6803F01003102B1BD17B681B684D
:102E2C006FF010021A617B6808221A777B681B68A6
:102E3C00DB6903F44073002B03D0786800F0F8F9D9
:102E4C0005E0786800F0EBF9786800F0FAF97B6837
:102E5C0000221A777B681B681B6903F00103012BA6
:102E6C000ED17B681B68DB6803F00103012B07D1D3
:102E7C007B681B686FF001021A617868FEF726FA0E
:102E8C007B681B681B6903F08003802B0ED17B6869
:102E9C001B68DB6803F08003802B07D17B681B6801
:102EAC006FF080021A61786800F0E9FC7B681B689F
:102EBC001B6903F04003402B0ED17B681B68DB6859
:102ECC0003F04003402B07D17B681B686FF0400276
:102EDC001A61786800F0BEF97B681B681B6903F007
:102EEC002003202B0ED17B681B68DB6803F02003CA
:102EFC00202B07D17B681B686FF020021A61786861
:102F0C0000F0B4FC00BF0837BD4680BD80B586B06C
:102F1C0000AFF860B9607A600023FB75FB6893F82A
:102F2C003C30012B01D10223AEE0FB68012283F877
:102F3C003C207B680C2B00F29F8001A252F823F0FE
:102F4C00812F000885300008853000088530000886
:102F5C00C12F000885300008853000088530000836
:102F6C0003300008853000088530000885300008E3
:102F7C0043300008FB681B68B968184600F0D6F9A6
:102F8C00FB681B689A69FB681B6842F008029A612F
:102F9C00FB681B689A69FB681B6822F004029A6143
:102FAC00FB681B689969BB681A69FB681B680A4354
:102FBC009A6164E0FB681B68B968184600F01CFA5B
:102FCC00FB681B689A69FB681B6842F400629A6193
:102FDC00FB681B689A69FB681B6822F480629A6123
:102FEC00FB681B689969BB681B691A02FB681B6844
:102FFC000A439A6143E0FB681B68B968184600F005
:10300C0065FAFB681B68DA69FB681B6842F008020A
:10301C00DA61FB681B68DA69FB681B6822F0040242
:10302C00DA61FB681B68D969BB681A69FB681B68A5
:10303C000A43DA6123E0FB681B68B968184600F0A4
:10304C00AFFAFB681B68DA69FB681B6842F4006224
:10305C00DA61FB681B68DA69FB681B6822F4806222
:10306C00DA61FB681B68D969BB681B691A02FB68CB
:10307C001B680A43DA6102E00123FB7500BFFB68A1
:10308C00002283F83C20FB7D18461837BD4680BDD6
:10309C0080B584B000AF786039600023FB737B6827
:1030AC0093F83C30012B01D10223B4E07B68012260
:1030BC0083F83C207B68022283F83D207B681B68E8
:1030CC009B68BB60BB6823F07703BB60BB6823F4D1
:1030DC007F43BB607B681B68BA689A603B681B685F
:1030EC00B3F5005F3ED0B3F5005F00F28780B3F517
:1030FC00805F00F08680B3F5805F7FD8702B1AD08C
:10310C00702B7BD8602B50D0602B77D8502B3CD0B9
:10311C00502B73D8402B58D0402B6FD8302B64D009
:10312C00302B6BD8202B60D0202B67D8002B5CD099
:10313C00102B5AD062E07B6818683B6899683B6832
:10314C005A683B68DB6800F0F0FA7B681B689B6888
:10315C00BB60BB6843F07703BB607B681B68BA68D5
:10316C009A604FE07B6818683B6899683B685A68BE
:10317C003B68DB6800F0D9FA7B681B689A687B684F
:10318C001B6842F480429A603CE07B6818683B689C
:10319C0059683B68DB681A4600F050FA7B681B687C
:1031AC005021184600F0A7FA2CE07B6818683B68A1
:1031BC0059683B68DB681A4600F06EFA7B681B683E
:1031CC006021184600F097FA1CE07B6818683B6891
:1031DC0059683B68DB681A4600F030FA7B681B685C
:1031EC004021184600F087FA0CE07B681A683B68AF
:1031FC001B681946104600F07EFA03E00123FB73AE
:10320C0000E000BF7B68012283F83D207B68002230
:10321C0083F83C20FB7B18461037BD4680BD80B43C
:10322C0083B000AF786000BF0C37BD4680BC7047E0
:10323C0080B483B000AF786000BF0C37BD4680BC53
:10324C00704780B483B000AF786000BF0C37BD46C8
:10325C0080BC704780B483B000AF786000BF0C377F
:10326C00BD4680BC7047000080B485B000AF78606C
:10327C0039607B681B68FB607B68294A93420BD0E2
:10328C007B68B3F1804F07D07B68264A934203D00A
:10329C007B68254A934208D1FB6823F07003FB60DE
:1032AC003B685B68FA681343FB607B681C4A93427B
:1032BC000BD07B68B3F1804F07D07B68194A9342DF
:1032CC0003D07B68184A934208D1FB6823F44073FF
:1032DC00FB603B68DB68FA681343FB60FB6823F018
:1032EC0080023B685B691343FB607B68FA681A6079
:1032FC003B689A687B68DA623B681A687B689A62FA
:10330C007B68074A934203D13B681A697B681A634E
:10331C007B6801225A6100BF1437BD4680BC7047E0
:10332C00002C0140000400400008004080B487B02D
:10333C0000AF786039607B681B6A7B617B681B6AB5
:10334C0023F001027B681A627B685B683B617B68D7
:10335C009B69FB60FB6823F07003FB60FB6823F048
:10336C000303FB603B681B68FA681343FB607B69D3
:10337C0023F002037B613B689B687A6913437B6192
:10338C007B681C4A93420CD17B6923F008037B6158
:10339C003B68DB687A6913437B617B6923F0040328
:1033AC007B617B68134A934211D13B6923F4807390
:1033BC003B613B6923F400733B613B685B693A6991
:1033CC0013433B613B689B693A6913433B617B68E0
:1033DC003A695A607B68FA689A613B685A687B68FC
:1033EC005A637B687A691A6200BF1C37BD4680BC81
:1033FC00704700BF002C014080B487B000AF7860EC
:10340C0039607B681B6A7B617B681B6A23F0100246
:10341C007B681A627B685B683B617B689B69FB60BD
:10342C00FB6823F4E043FB60FB6823F44073FB6010
:10343C003B681B681B02FA681343FB607B6923F033
:10344C0020037B613B689B681B017A6913437B619A
:10345C007B681D4A93420DD17B6923F080037B610D
:10346C003B68DB681B017A6913437B617B6923F042
:10347C0040037B617B68144A934213D13B6923F46C
:10348C0080633B613B6923F400633B613B685B6990
:10349C009B003A6913433B613B689B699B003A690B
:1034AC0013433B617B683A695A607B68FA689A619E
:1034BC003B685A687B689A637B687A691A6200BFBA
:1034CC001C37BD4680BC7047002C014080B487B0CF
:1034DC0000AF786039607B681B6A7B617B681B6A14
:1034EC0023F480727B681A627B685B683B617B6843
:1034FC00DB69FB60FB6823F07003FB60FB6823F067
:10350C000303FB603B681B68FA681343FB607B6931
:10351C0023F400737B613B689B681B027A6913433D
:10352C007B617B681D4A93420DD17B6923F4006358
:10353C007B613B68DB681B027A6913437B617B69A7
:10354C0023F480637B617B68144A934213D13B69FB
:10355C0023F480533B613B6923F400533B613B688C
:10356C005B691B013A6913433B613B689B691B0117
:10357C003A6913433B617B683A695A607B68FA6825
:10358C00DA613B685A687B68DA637B687A691A622D
:10359C0000BF1C37BD4680BC704700BF002C0140EB
:1035AC0080B487B000AF786039607B681B6A3B6180
:1035BC007B681B6A23F480527B681A627B685B68A9
:1035CC007B617B68DB69FB60FB6823F4E043FB6099
:1035DC00FB6823F44073FB603B681B681B02FA68B2
:1035EC001343FB603B6923F400533B613B689B68CE
:1035FC001B033A6913433B617B680F4A934209D121
:10360C007B6923F480437B613B685B699B017A692E
:10361C0013437B617B687A695A607B68FA68DA616C
:10362C003B685A687B681A647B683A691A6200BF07
:10363C001C37BD4680BC7047002C014080B487B05D
:10364C0000AFF860B9607A60FB681B6A7B61FB684D
:10365C001B6A23F00102FB681A62FB689B693B61E1
:10366C003B6923F0F0033B617B681B013A69134310
:10367C003B617B6923F00A037B617A69BB68134366
:10368C007B61FB683A699A61FB687A691A6200BFD0
:10369C001C37BD4680BC704780B487B000AFF86063
:1036AC00B9607A60FB681B6A7B61FB681B6A23F05C
:1036BC001002FB681A62FB689B693B613B6923F44F
:1036CC0070433B617B681B033A6913433B617B6925
:1036DC0023F0A0037B61BB681B017A6913437B61F8
:1036EC00FB683A699A61FB687A691A6200BF1C37F9
:1036FC00BD4680BC704780B485B000AF786039603F
:10370C007B689B68FB60FB6823F07003FB603A6886
:10371C00FB68134343F00703FB607B68FA689A600D
:10372C0000BF1437BD4680BC704780B487B000AF73
:10373C00F860B9607A603B60FB689B687B617B6971
:10374C0023F47F437B613B681A027B681A43BB6896
:10375C0013437A6913437B61FB687A699A6000BFF3
:10376C001C37BD4680BC704780B487B000AFF86092
:10377C00B9607A60BB6803F01F03012202FA03F3FD
:10378C007B61FB681A6A7B69DB431A40FB681A622F
:10379C00FB681A6ABB6803F01F03796801FA03F32C
:1037AC001A43FB681A6200BF1C37BD4680BC7047C9
:1037BC0080B485B000AF786039607B6893F83C309A
:1037CC00012B01D1022346E07B68012283F83C20C7
:1037DC007B68022283F83D207B681B685B68FB607A
:1037EC007B681B689B68BB60FB6823F07003FB6005
:1037FC003B681B68FA681343FB607B681B68FA68BC
:10380C005A607B681B68164A93420ED07B681B6813
:10381C00B3F1804F09D07B681B68124A934204D0E5
:10382C007B681B68104A93420CD1BB6823F0800361
:10383C00BB603B685B68BA681343BB607B681B6802
:10384C00BA689A607B68012283F83D207B6800226D
:10385C0083F83C20002318461437BD4680BC7047C3
:10386C00002C0140000400400008004080B483B0EC
:10387C0000AF786000BF0C37BD4680BC704780B489
:10388C0083B000AF786000BF0C37BD4680BC70477A
:10389C0080B582B000AF78607B68002B01D101232A
:1038AC0042E07B6893F84130DBB2002B06D17B6899
:1038BC00002283F840207868FDF7B8FF7B6824224B
:1038CC0083F841207B681B68DA687B681B6822F4EC
:1038DC000052DA60786800F071FD7B681B681A6929
:1038EC007B681B6822F490421A617B681B685A69DA
:1038FC007B681B6822F02A025A617B681B68DA68B5
:10390C007B681B6842F40052DA607B6800225A64C0
:10391C007B68202283F841207B68202283F8422098
:10392C007B6800225A63002318460837BD4680BDC9
:10393C0080B58AB002AFF860B9603B601346FB807B
:10394C0000237B61FB6893F84130DBB2202B6DD1F7
:10395C00BB68002B02D0FB88002B01D1012366E051
:10396C00FB6800225A64FB68212283F84120FEF791
:10397C009DF87861FB68FA889A84FB68FA88DA8487
:10398C00FB689B68B3F5805F08D1FB681B69002B53
:10399C0004D10023FB61BB68BB6103E0BB68FB6126
:1039AC000023BB612AE03B6800937B6900228021E5
:1039BC00F86800F0F9FA0346002B01D0032336E037
:1039CC00FB69002B0BD1BB691B881A46FB681B6873
:1039DC00C2F308025A60BB690233BB6107E0FB69A2
:1039EC001A78FB681B685A60FB690133FB61FB6842
:1039FC00DB8C9BB2013B9AB2FB68DA84FB68DB8CF4
:103A0C009BB2002BCFD13B6800937B6900224021F5
:103A1C00F86800F0C9FA0346002B01D0032306E036
:103A2C00FB68202283F84120002300E00223184683
:103A3C002037BD4680BD000080B5BAB000AF7860BD
:103A4C007B681B681B68C7F8E4307B681B68DB6805
:103A5C00C7F8E0307B681B685B69C7F8DC30002373
:103A6C00C7F8D8300023C7F8D430D7F8E43003F0C7
:103A7C000F03C7F8D830D7F8D830002B0FD1D7F8B0
:103A8C00E43003F02003002B09D0D7F8E03003F02A
:103A9C002003002B03D0786800F0D1FB5BE2D7F851
:103AAC00D830002B00F0DE80D7F8DC3003F00103B7
:103ABC00002B06D1D7F8E03003F49073002B00F004
:103ACC00D180D7F8E43003F00103002B0BD0D7F8EA
:103ADC00E03003F48073002B05D07B685B6C43F003
:103AEC0001027B685A64D7F8E43003F00403002B1E
:103AFC000BD0D7F8DC3003F00103002B05D07B682A
:103B0C005B6C43F002027B685A64D7F8E43003F034
:103B1C000203002B0BD0D7F8DC3003F00103002B91
:103B2C0005D07B685B6C43F004027B685A64D7F861
:103B3C00E43003F00803002B11D0D7F8E03003F089
:103B4C002003002B05D1D7F8DC3003F00103002B48
:103B5C0005D07B685B6C43F008027B685A647B6819
:103B6C005B6C002B00F0F281D7F8E43003F02003FB
:103B7C00002B08D0D7F8E03003F02003002B02D044
:103B8C00786800F05CFB7B681B685B6903F04003A2
:103B9C00002B14BF01230023DBB2C7F8D4307B68A1
:103BAC005B6C03F00803002B03D1D7F8D430002B47
:103BBC004FD0786800F066FA7B681B685B6903F08D
:103BCC004003002B41D07B681B681433C7F89C3032
:103BDC00D7F89C3053E8003FC7F89830D7F89830A6
:103BEC0023F04003C7F8D0307B681B681433D7F838
:103BFC00D020C7F8A820C7F8A430D7F8A410D7F85D
:103C0C00A82041E80023C7F8A030D7F8A030002B3B
:103C1C00D9D17B68DB6B002B13D07B68DB6B7E4AC6
:103C2C005A637B68DB6B1846FEF792F80346002B51
:103C3C0016D07B68DB6B5B6B7A68D26B104698474F
:103C4C000EE0786800F09CF90AE0786800F098F9CA
:103C5C0006E0786800F094F97B6800225A6475E1FC
:103C6C0000BF73E17B681B6B012B40F04F81D7F8D1
:103C7C00E43003F01003002B00F04881D7F8E0305B
:103C8C0003F01003002B00F041810023BB607B6824
:103C9C001B681B68BB607B681B685B68BB60BB6890
:103CAC007B681B685B6903F04003002B00F0B68057
:103CBC007B68DB6B1B685B68A7F8BE30B7F8BE305F
:103CCC00002B00F045817B689B8DB7F8BE209A4293
:103CDC0080F03E817B68B7F8BE20DA857B68DB6BB1
:103CEC009B69202B00F088807B681B680C33C7F81D
:103CFC008830D7F8883053E8003FC7F88430D7F8BD
:103D0C00843023F48073C7F8B8307B681B680C339D
:103D1C00D7F8B820C7F89420C7F89030D7F890108F
:103D2C00D7F8942041E80023C7F88C30D7F88C30B2
:103D3C00002BD9D17B681B6814337B677B6F53E8EE
:103D4C00003F3B673B6F23F00103C7F8B4307B683F
:103D5C001B681433D7F8B420C7F88020FB67F96FC1
:103D6C00D7F8802041E80023BB67BB6F002BE1D163
:103D7C007B681B6814333B663B6E53E8003FFB6566
:103D8C00FB6D23F04003C7F8B0307B681B6814331D
:103D9C00D7F8B020FA66BB66B96EFA6E41E800231C
:103DAC007B667B6E002BE3D17B68202283F842205C
:103DBC007B6800221A637B681B680C33FB64FB6C0A
:103DCC0053E8003FBB64BB6C23F01003C7F8AC3066
:103DDC007B681B680C33D7F8AC20BA657B65796DB2
:103DEC00BA6D41E800233B653B6D002BE3D17B684A
:103DFC00DB6B1846FDF771FF7B6802225A637B6808
:103E0C009A8D7B68DB8D9BB2D31A9BB2194678686E
:103E1C0000F0BFF89CE000BF554100087B689A8D0C
:103E2C007B68DB8D9BB2D31AA7F8CE307B68DB8D19
:103E3C009BB2002B00F08E80B7F8CE30002B00F038
:103E4C0089807B681B680C33BB63BB6B53E8003FFA
:103E5C007B637B6B23F49073C7F8C8307B681B685B
:103E6C000C33D7F8C8207A643B64396C7A6C41E81F
:103E7C000023FB63FB6B002BE3D17B681B681433C3
:103E8C007B627B6A53E8003F3B623B6A23F0010391
:103E9C00C7F8C4307B681B681433D7F8C4203A6366
:103EAC00FB62F96A3A6B41E80023BB62BB6A002BE8
:103EBC00E3D17B68202283F842207B6800221A63BE
:103ECC007B681B680C333B613B6953E8003FFB602C
:103EDC00FB6823F01003C7F8C0307B681B680C33F9
:103EEC00D7F8C020FA61BB61B969FA6941E80023CF
:103EFC007B617B69002BE3D17B6802225A63B7F8A4
:103F0C00CE301946786800F044F823E0D7F8E43056
:103F1C0003F08003002B09D0D7F8E03003F08003C6
:103F2C00002B03D0786800F023F914E0D7F8E430C4
:103F3C0003F04003002B0ED0D7F8E03003F0400321
:103F4C00002B08D0786800F062F904E000BF02E0B2
:103F5C0000BF00E000BFE837BD4680BD80B483B031
:103F6C0000AF786000BF0C37BD4680BC704780B492
:103F7C0083B000AF786000BF0C37BD4680BC704783
:103F8C0080B483B000AF786000BF0C37BD4680BCF6
:103F9C00704780B483B000AF78600B467B8000BF65
:103FAC000C37BD4680BC704780B590B000AFF86050
:103FBC00B9603B601346FB7150E0BB6CB3F1FF3F43
:103FCC004CD0BB6C002B07D0FDF770FD02463B6854
:103FDC00D31ABA6C9A4241D2FB681B680C33BB6291
:103FEC00BB6A53E8003F7B627B6A23F4D073FB63AC
:103FFC00FB681B680C33FA6B7A633B63396B7A6B27
:10400C0041E80023FB62FB6A002BE5D1FB681B68CF
:10401C0014337B617B6953E8003F3B613B6923F0C0
:10402C000103BB63FB681B681433BA6B3A62FB6118
:10403C00F9693A6A41E80023BB61BB69002BE5D101
:10404C00FB68202283F84120FB68202283F8422061
:10405C00FB68002283F8402003230FE0FB681B68F9
:10406C001A68BB681340BA689A420CBF012300233C
:10407C00DBB21A46FB799A429FD000231846403790
:10408C00BD4680BD80B495B000AF78607B681B687E
:10409C000C337B637B6B53E8003F3B633B6B23F43C
:1040AC009073FB647B681B680C33FA6C3A64FB639B
:1040BC00F96B3A6C41E80023BB63BB6B002BE5D179
:1040CC007B681B6814333B623B6A53E8003FFB611F
:1040DC00FB6923F00103BB647B681B681433BA6C67
:1040EC00FA62BB62B96AFA6A41E800237B627B6AB6
:1040FC00002BE5D17B681B6B012B19D17B681B68EE
:10410C000C33FB60FB6853E8003FBB60BB6823F0DB
:10411C0010037B647B681B680C337A6CBA617B611F
:10412C007969BA6941E800233B613B69002BE5D111
:10413C007B68202283F842207B6800221A6300BF30
:10414C005437BD4680BC704780B584B000AF7860F2
:10415C007B685B6AFB60FB680022DA85FB680022E7
:10416C00DA84F868FFF70CFF00BF1037BD4680BD3E
:10417C0080B485B000AF78607B6893F84130DBB2D7
:10418C00212B3ED17B689B68B3F5805F14D17B6893
:10419C001B69002B10D17B681B6AFB60FB681B88BA
:1041AC001A467B681B68C2F308025A607B681B6A5C
:1041BC009A1C7B681A6208E07B681B6A591C7A6837
:1041CC0011621A787B681B685A607B68DB8C9BB227
:1041DC00013B9BB27A681946D184002B0FD17B68C6
:1041EC001B68DA687B681B6822F08002DA607B68E7
:1041FC001B68DA687B681B6842F04002DA600023B7
:10420C0000E0022318461437BD4680BC704780B5C9
:10421C0082B000AF78607B681B68DA687B681B68CB
:10422C0022F04002DA607B68202283F84120786813
:10423C00FFF794FE002318460837BD4680BD80B5B5
:10424C008CB000AF78607B6893F84230DBB2222BE5
:10425C0040F0AE807B689B68B3F5805F17D17B68BC
:10426C001B69002B13D10023FB627B689B6ABB622A
:10427C007B681B685B689BB2C3F308039AB2BB6A8A
:10428C001A807B689B6A9A1C7B689A6226E07B6822
:10429C009B6AFB620023BB627B689B68B3F5805F03
:1042AC0007D07B689B68002B0AD17B681B69002BAD
:1042BC0006D17B681B685B68DAB2FB6A1A7008E08F
:1042CC007B681B685B68DBB203F07F03DAB2FB6AC6
:1042DC001A707B689B6A5A1C7B689A627B68DB8DC0
:1042EC009BB2013B9BB27A681946D185002B5DD1FC
:1042FC007B681B68DA687B681B6822F02002DA6036
:10430C007B681B68DA687B681B6822F48072DA6051
:10431C007B681B685A697B681B6822F001025A6132
:10432C007B68202283F842207B6800225A637B68DA
:10433C001B6B012B35D17B6800221A637B681B68D1
:10434C000C337B617B6953E8003F3B613B6923F095
:10435C0010037B627B681B680C337A6A3A62FB61E0
:10436C00F9693A6A41E80023BB61BB69002BE5D1CE
:10437C007B681B681B6803F01003102B0AD1002309
:10438C00FB607B681B681B68FB607B681B685B6859
:10439C00FB60FB687B689B8D19467868FFF7F9FD1D
:1043AC0002E07868FFF7E3FD002302E0002300E061
:1043BC00022318463037BD4680BD000080B584B05E
:1043CC0000AF78607B681B681B6923F440517B68E5
:1043DC00DA687B681B680A431A617B689A687B6899
:1043EC001B691A437B685B691343BB607B681B6862
:1043FC00DB6823F4B05323F00C037A681268B968B5
:10440C000B43D3607B681B685B6923F440717B684A
:10441C009A697B681B680A435A617B681B682C4A43
:10442C00934203D1FEF79CFAF86002E0FEF784FA9F
:10443C00F860FA6813469B0013449A001A447B6890
:10444C005B689B00B2FBF3F3224AA2FB03235B09DC
:10445C001901FA6813469B0013449A001A447B68AE
:10446C005B689B00B2FBF3F21A4BA3FB02035B09E4
:10447C00642000FB03F3D31A1B013233154AA2FB51
:10448C0003235B0903F0F0031944FA6813469B00FD
:10449C0013449A001A447B685B689B00B2FBF3F2EE
:1044AC000C4BA3FB02035B09642000FB03F3D31A40
:1044BC001B013233074AA2FB03235B0903F00F02F3
:1044CC007B681B680A449A6000BF1037BD4680BDEC
:1044DC00003801401F85EB51014B1868704700BF35
:1044EC00A800002070B500260C4D0D4C641BA410C8
:1044FC00A64209D100F06CFC00260A4D0A4C641B44
:10450C00A410A64205D170BD55F8043B984701365E
:10451C00EEE755F8043B98470136F2E710510008D6
:10452C00105100081051000814510008024B0146AC
:10453C00186800F05FB800BFA8000020024B0146CD
:10454C00186800F00BB800BFA80000200346024416
:10455C00934200D1704703F8011BF9E738B50546C3
:10456C00002943D051F8043C0C1F002BB8BFE418B1
:10457C0000F0CAF81E4A1368104633B96360146021
:10458C002846BDE8384000F0C5B8A3420AD92168D6
:10459C006218934201BF1A685B685218226063600C
:1045AC000460EDE71A465B680BB1A342FAD91168B7
:1045BC005018A0420BD1206801445018834211605E
:1045CC00DED118685B68014411605360D8E702D9EA
:1045DC000C232B60D4E7206821188B4201BF19688B
:1045EC005B680918216063605460C9E738BD00BF7F
:1045FC00A4010020F8B5CD1C25F0030508350C2DC1
:10460C0038BF0C25002D064601DBA94203D90C232B
:10461C0033600020F8BD00F077F821490A68144691
:10462C009CB9204F3B6823B92146304600F03CF83A
:10463C0038602946304600F037F8431C23D10C2350
:10464C003046336000F066F8E3E723685B1B17D451
:10465C000B2B03D923601C44256004E06368A24241
:10466C000CBF0B605360304600F054F804F10B00A3
:10467C00231D20F00700C21ACCD01B1AA350C9E787
:10468C0022466468CCE7C41C24F00304A042E3D0A7
:10469C00211A304600F008F80130DDD1CFE700BF19
:1046AC00A4010020A801002038B50023054D0446C4
:1046BC0008462B60FDF740F9431C02D12B6803B16F
:1046CC00236038BD1C0300200EB46FF0004100B510
:1046DC009CB01DAB029006900791049108480949C3
:1046EC0053F8042B0591006802A9019300F074F8AB
:1046FC000022029B1A701CB05DF804EB03B07047EB
:10470C00A80000200802FFFF014800F0FBBA00BF20
:10471C0024030020014800F0F6BA00BF2403002057
:10472C002DE9F0478E6882469E420C4690461F4605
:10473C0038D88A8912F4906F32D025680969013310
:10474C00A5EB010965694B4405EB450505EBD575F2
:10475C006D109D4238BF1D46530531D52946FFF7D4
:10476C0049FF064650B90C234FF0FF30CAF8003011
:10477C00A38943F04003A381BDE8F0874A46216931
:10478C0000F0D0FAA38923F4906343F08003A38153
:10479C0026614E4426603E466561A5EB0905A56081
:1047AC00BE4200D93E4632464146206800F0C8FA67
:1047BC00A36822689B1B32440020A3602260DBE7C5
:1047CC002A4600F0D7FA06460028E1D15046216966
:1047DC00FFF7C4FEC7E700002DE9F04F98468B8920
:1047EC0007461B060D4614469DB00ED50B6963B9E2
:1047FC004021FFF7FFFE2860286120B90C233B60A5
:10480C004FF0FF30D1E040236B610023099320234C
:10481C008DF8293030234FF00109CDF80C80DFF8EA
:10482C00A4818DF82A3023469A4613F8012B0AB13D
:10483C00252AF9D1BAEB040B0BD05B46224629464C
:10484C003846FFF76DFF013000F0AA80099A5A44F0
:10485C0009929AF80030002B00F0A28000234FF050
:10486C00FF32CDE905230AF1010A049307938DF871
:10487C0053301A935446052214F8011B514800F08A
:10488C0043FA049AD8B9D00644BF20238DF853308C
:10489C00110744BF2B238DF853309AF800302A2B84
:1048AC0015D0544600204FF00A0C079A214611F8F7
:1048BC00013B303B092B4ED9B0B1079214E0A0EB71
:1048CC00080309FA03F31343A2460493D2E7039BAC
:1048DC00191D1B680391002BBBBF5B4242F0020207
:1048EC0007930793B8BF049223782E2B0CD16378CF
:1048FC002A2B35D1039B02341A1D1B680392002B03
:10490C00B8BF4FF0FF330593DFF8C8A00322504621
:10491C00217800F0F9F940B14023A0EB0A0003FA2A
:10492C0000F0049B01340343049314F8011B06228A
:10493C0025488DF8281000F0E7F9002838D0234BD3
:10494C001BBB039B073323F0070308330393099B1B
:10495C003344099367E70C4601200CFB0232A5E7B0
:10496C0000234FF00A0C194601340593204610F829
:10497C00012B303A092A03D9002BC5D00591C3E786
:10498C00044601230CFB0121F0E703AB00932A46FC
:10499C0038460F4B04A9AFF30080421C0646D6D113
:1049AC00AB895B063FF52CAF09981DB0BDE8F08FC5
:1049BC0003AB00932A463846054B04A900F07CF85B
:1049CC00EBE700BFDA500008E450000800000000DC
:1049DC002D470008E05000082DE9F047164699468F
:1049EC008A680B6907469342B8BF1346336091F847
:1049FC0043200C46DDF820800AB101333360236874
:104A0C00990642BF336802333360256815F00605FA
:104A1C0006D104F1190AE36832689B1AAB4228DC10
:104A2C0094F84320131E226818BF012392062DD43C
:104A3C004946384604F14302C047013020D0236870
:104A4C00E56803F00603042B18BF002532684FF00D
:104A5C000006A36808BFAD1A226908BF25EAE575F0
:104A6C009342C4BF9B1AED181A34B5421AD10020D8
:104A7C0008E00123524649463846C047013003D16D
:104A8C004FF0FF30BDE8F0870135C4E73020E11866
:104A9C0081F843005A1C94F845102244023382F8E2
:104AAC004310C5E70123224649463846C04701302A
:104ABC00E6D00136D9E700002DE9FF470C46277EEA
:104ACC009146782F80469A460C9904F1430207D8F8
:104ADC00622F0AD8002F00F0D980582F00F0A48044
:104AEC0004F1420684F842703AE0A7F16303152BF7
:104AFC00F6D801A050F823F05D4B0008714B00086C
:104B0C00ED4A0008ED4A0008ED4A0008ED4A00089D
:104B1C00714B0008ED4A0008ED4A0008ED4A000808
:104B2C00ED4A00087F4C0008A14B0008614C0008BE
:104B3C00ED4A0008ED4A0008A14C0008ED4A0008B7
:104B4C00A14B0008ED4A0008ED4A0008694C00082A
:104B5C000B6804F142061A1D1B680A6084F8423087
:104B6C000123A4E0256808682E0600F104030AD589
:104B7C0005680B60002D03DA2D236D4284F8433059
:104B8C000A235E4819E015F0400F05680B6018BF4A
:104B9C002DB2EFE70B682568181D0860280601D5B3
:104BAC001D6802E06906FBD51D886F2F0CBF08231A
:104BBC000A235248002184F843106668002EA8BFCF
:104BCC002168A660A4BF21F0040121600DB9002E5C
:104BDC004DD01646B5FBF3F103FB1157C75D06F834
:104BEC00017D2F46BB420D46F4D9082B0BD123680F
:104BFC00DF0708D5236961689942DEBF302306F8C8
:104C0C00013C06F1FF36921B22614B462146404681
:104C1C00CDF800A003AAFFF7DFFE01304CD14FF016
:104C2C00FF3004B0BDE8F087344884F845700E6856
:104C3C00236856F8045B1F060E6014D5D90744BFD1
:104C4C0043F0200323601DB9236823F02003236065
:104C5C001023AFE7236843F0200323607823284810
:104C6C0084F84530E3E75E0648BFADB2E6E716468A
:104C7C00BBE70B6826681D1D60690D6035061B6857
:104C8C0001D5186002E07106FBD51880002316468A
:104C9C002361BAE70B681A1D0A601E6800213046B2
:104CAC00626800F031F808B1801B606063682361B2
:104CBC00002384F84330A8E732464946404623692E
:104CCC00D0470130ABD023689B0713D4E068039B1B
:104CDC009842B8BF1846A4E70123324649464046DD
:104CEC00D04701309BD00135E36803995B1AAB4286
:104CFC00F2DCEBE7002504F11906F5E7EB500008B0
:104D0C00FC50000870477047034610B5C9B2024406
:104D1C009342184601D1002003E0047801338C4201
:104D2C00F6D110BD0A44914200F1FF3300D1704717
:104D3C0010B511F8014B914203F8014FF9D110BD98
:104D4C00884210B501EB020402D98442234607D8ED
:104D5C00431EA14208D011F8012B03F8012FF8E7EC
:104D6C00014602448A4200D110BD13F8014D02F8ED
:104D7C00014DF7E7F8B5074614460E4621B9114622
:104D8C00BDE8F840FFF736BC22B9FFF7E7FB254634
:104D9C002846F8BD00F014F8A0420FD22146384640
:104DAC00FFF728FC05460028F2D031462246FFF7D3
:104DBC00B9FF31463846FFF7D1FBE9E73546E7E75F
:104DCC0051F8043C181F002BBCBF0B58C01870477F
:104DDC00F8B500BFF8BC08BC9E467047F8B500BFDC
:084DEC00F8BC08BC9E467047AC
:104DF4004D616E75616C3A20526F616420313A20C6
:104E04005265640D0A526F616420323A204772651C
:104E1400656E0D0A0000000054756E696E673A20D5
:104E24005265640D0A54696D653A2025640D0A00C3
:104E3400526F616420313A205265640D0A54696DE1
:104E4400653A25640D0A0000526F616420323A20ED
:104E5400477265656E0D0A54696D653A25640D0ADD
:104E640000000000526F616420323A2059656C6C76
:104E74006F770D0A54696D653A25640D0A000000C8
:104E8400526F616420313A20477265656E0D0A5491
:104E9400696D653A25640D0A00000000526F616473
:104EA40020323A205265640D0A54696D653A2564CE
:104EB4000D0A0000526F616420313A2059656C6C10
:104EC4006F770D0A54696D653A25640D0A00000078
:104ED4004D616E75616C3A20526F616420313A20E5
:104EE400477265656E0D0A526F616420323A205232
:104EF40065640D0A0000000054756E696E673A20FF
:104F040059656C6C6F770D0A54696D653A20256498
:104F14000D0A000054756E696E673A205265640D7F
:104F24000A496E6372656173652074696D652074E6
:104F34006F3A2025640D0A0054756E696E673A2035
:104F44005265640D0A54696D652073657420746F2D
:104F54003A2025640D0A000054756E696E673A2084
:104F6400477265656E0D0A54696D653A2025640DB6
:104F74000A00000054756E696E673A2059656C6CBE
:104F84006F770D0A496E6372656173652074696D8C
:104F94006520746F3A2025640D0A000054756E690B
:104FA4006E673A2059656C6C6F770D0A54696D65AC
:104FB4002073657420746F3A2025640D0A00000084
:104FC40054756E696E673A205265640D0A54696DB2
:104FD400653A2025640D0A0054756E696E673A209F
:104FE400477265656E0D0A496E637265617365206B
:104FF40074696D6520746F3A2025640D0A00000001
:1050040054756E696E673A20477265656E0D0A5471
:10501400696D652073657420746F3A2025640D0AE8
:10502400000000001B5B324A000000001B5B4800CC
:10503400414444205441534B3A2046756E6374698D
:105044006F6E20706F696E74657220696E76616C24
:1050540069640D0A00000000414444205441534B4C
:105064003A205363686564756C65722066756C6C70
:105074000D0A0000414444205441534B3A204164FA
:1050840064656420256C750D0A00000041444420C9
:105094005441534B3A2041646465642066697273D9
:1050A4007420256C750D0A006400000000000000E7
:1050B40000000000010203040607080900000000C4
:1050C4000102030402030405060708090A0B0C0D78
:1050D4000E0F10100102232D302B2000686C4C00A1
:1050E40065666745464700303132333435363738E4
:1050F4003941424344454600303132333435363742
:0C510400383961626364656600000000D9
:045110003101000861
:045114000D01000881
:1051180002001000010001000008014000080140E1
:10512800000C0140000801400100000001000000DF
:105138000100000001000000010000000100000063
:105148000100000001000000010000000100000053
:105158000100000001000000010000000100000043
:105168000100000001000000C8000000C8000000A5
:10517800C8000000C8000000F40100002C01000075
:10518800C800000005000000030000000200000045
:105198000C00000001000000320000005A0000006E
:1051A8003C00000028000000140000000024F40067
:1051B8001000000001000000AC000020000000000A
:1051C80000000000000000000000000000000000D7
:1051D80000000000000000000000000000000000C7
:1051E80000000000000000000000000000000000B7
:1051F80000000000000000000000000000000000A7
:105208000000000000000000000000000000000096
:0C5218000000000000000000000000008A
:04000005080019BD19
:00000001FF
